:020000041008E2
:40000000007804080B0908100D0000007109081071090810710908107109081000000000000000000000000000000000915E08106D09081000000000315F0810955F081072
:400040006D0908106D0908106D0908106D0908106D0908106D0908106D0908106D0908106D0908106D0908106D0908106D0908106D0908106D0908106D0908106D090810A0
:400080006D0908106D0908106D0908106D0908106D0908106D0908106D0908106D0908106D0908106D0908106D0908106D0908106D0908106D0908106D0908106D09081060
:4000C0006D0908106D0908106D0908106D0908106D0908106D0908106D0908106D0908106D0908106D0908106D0908106D0908106D0908106D0908106D0908106D09081020
:400100006D0908106D0908106D0908106D0908106D0908106D0908106D0908106D0908106D0908106D0908106D0908106D0908106D0908106D0908106D0908106D090810DF
:400140006D0908106D0908106D0908106D0908106D0908106D0908106D0908106D0908106D0908106D0908106D0908106D0908106D0908106D0908106D0908106D0908109F
:400180006D0908106D0908106D0908106D0908106D0908106D0908106D0908106D0908106D0908106D0908106D0908106D0908106D0908106D0908106D0908106D0908105F
:4001C0006D0908106D0908106D0908106D0908106D0908106D0908106D0908106D0908106D0908106D0908106D0908106D0908106D0908106D0908106D0908106D0908101F
:400200006D0908106D0908106D0908106D0908106D0908106D0908106D0908106D0908106D0908106D0908106D0908106D0908106D0908106D0908106D0908106D090810DE
:400240006D0908106D0908106D0908106D0908106D0908106D0908106D0908106D0908106D0908106D0908106D0908106D0908106D0908106D0908106D0908106D0908109E
:400280006D0908106D0908106D09081010B5054C237833B9044B13B10448AFF300800123237010BD206902080000000024AA0810084B10B51BB108490848AFF30080084882
:4002C000036803B910BD074B002BFBD0BDE81040184700BF000000002469020824AA0810084702080000000010B5054C042204F12801044800F034FE012384F8253010BD4F
:400300008C4202080000634010B5044C0422A118034800F025FE0123637010BD8C42020800006240000000002DE9F04F2DED088B8DB0044600EBC006AF4B03EB8606D6F836
:400340001080404606F058F9A5A3D3E9002306F0F3FAAA4D05EBC415C5E90001404606F04BF99FA3D3E9002306F0E6FA82468B46C5E902ABB06906F03FF999A3D3E900239A
:4003800006F0DAFAC5E90401306A06F035F994A3D3E9002306F0D0FA80468946C5E90689002373702B8C43B9C5E90CABC5E90AABC5E91089C5E90E893DE0904B03EBC41390
:4003C000D3E90C235046594606F01CFC28B18B4B03EBC413C3E90CAB0EE0884B03EBC413D3E90A235046594606F0EEFB20B1834B03EBC413C3E90AAB804B03EBC413D3E964
:4004000010234046494606F0FDFB28B17B4B03EBC413C3E910890EE0784B03EBC413D3E90E234046494606F0CFFB20B1734B03EBC413C3E90E89714B03EBC41393F82230B0
:4004400033B96E4B03EBC4131A8C01321A8405E06A4A02EBC412013B82F82230674B03EBC4131B8CB3F5967FC0F0B1802146644807F086F8614B03EBC414D4E90623CDE9E5
:400480000023D4E902235F4807F07AF894ED0C8BD4E90AAB52465B4651EC180B05F06EFF06460F46C4E9186752465B4651EC180B05F066FF0022544B06F014F941EC190BCD
:4004C000C4E91601D4E9108994ED0EBB53EC1B2B4046494605F052FF41EC1A0BC4E91C0153EC1B2B4046494605F04AFF0022464B06F0F8F880468946C4E91A8953EC192BC3
:400500003046394606F018FACDE9060142464B4651EC1A0B06F010FA02460B46DDE9060106F00AFAC4E91E01384D8DED049B8DED028BCDE900AB32463B46284607F020F8DE
:40054000D4E91A23CDE90423D4E91023CDE90223D4E90E23CDE90023D4E91C23284607F00FF821A3D3E90023D4E91E0106F0BAF81FA3D3E9002305F003FF02460B462448E6
:4005800006F0FEFF18A3D3E90023D4E91E0106F0A9F817A3D3E9002305F0F2FE06F03CFB154B03F86C0F00260A960B9609930125ADF828501223ADF82C3009A803F06AFC34
:4005C00009A9144803F012FD2684284600E000200DB0BDEC088BBDE8F08F00BFAFF30080000000000088C3403333333333330FC0CDCCCCCCCC2C59408C42020840690208FC
:40060000D0970810D89708100000E03FE0970810F09708106836030800B583B04FF40073019340F20123009368BB494BB3F90030002B0DDB5A0903F01F03012101FA03F372
:400640002032444941F82230BFF34F8FBFF36F8F03236A462321404800F096FC3F4BB3F90030002B08DB590903F01F03012202FA03F3384A42F82130032301AA232138480A
:4006800000F082FC61E001282DD1344BB3F90030002B0DDB5A0903F01F03012101FA03F320322C4941F82230BFF34F8FBFF36F8F03236A4623212A4800F066FC244BB3F9E0
:4006C0000030002B08DB590903F01F03012202FA03F3204A42F82130032301AA23211E4800F052FC31E01D4BB3F90030002B0DDB5A0903F01F03012101FA03F320321549DF
:4007000041F82230BFF34F8FBFF36F8F03236A462321134800F038FC0D4BB3F90030002B0DDB5A0903F01F03012101FA03F32032084941F82230BFF34F8FBFF36F8F0323EF
:400740006A462321044800F01FFC03B05DF804FBFC99081000E100E000006340049A08100000624010B5064C04EBC01480220021204606F08BFA052384F8223010BD00BFBE
:400780004069020800000000D0B582B0044600230193394806F066FF384B586905F02CFF31A3D3E9002306F0C7F802460B46344806F0E6FE334B5B693349A1FB0331890917
:4007C000324806F0DDFE0CB9314900E03149324806F0D6FE0A21314806F0D2FE24A7D7E9006732463B462E4806F0CAFE0A212D4806F0C6FE32463B462B4806F0C1FE2B485A
:4008000006F030FF2A4806F02DFF2046FFF7AAFF84B9284C032301AA0021204600F0B4FB2D222549204600F0E7FB2449244802F02FFD0FE0234C032301AA0021204600F0C0
:40084000A3FB2D221C49204600F0D6FB1E491F4802F01EFD1E4B93F88001FFF7DDFE02221C4B5A6002B0D0BD00000000004CED40343333333333134008980810B8A2081031
:400880001C9808101CA30810D34D62103C980810F89708100098081058980810709808108C980810A8980810C4980810E4980810109908100000624068960810090308105F
:4008C000049A081000006340E9020810FC990810406902088003324008B50A4B5B7813F0FF0F02D00020FFF71FFD064B93F8253013F0FF0F02D00120FFF716FD002002F0FD
:400900005DFEEAE78C4202087047FFF7FDFF72B6104C114DAC4209DA21686268A368043BA2BFC858D050FAE70C34F3E70B490C4A00209142BCBF41F8040BFAE709480A4939
:400940000860BFF34F8F00F0B1FA00F08BFA00F059F9FEE7E4880910FC880910206902086C3703080040020808ED00E0FEE7FEE700B504207146084202D0EFF3098001E004
:40098000EFF30880043002F0F1FCFEE738B544F20803984207D00C4645F20C03984207D0B0F5805F18D10021084603F011F938BD0A4D284603F092FA2B78687843EA0020CB
:4009C00011F0BAFFE06811F0B7FF2389142B03D123681A78024B1A7038BD00BF68360308C46A020800B583B002A9002341F8043D084B186804F026FA019B3BB14FF0805246
:400A0000054B1A60BFF34F8FBFF36F8F03B05DF804FB00BF1436030804ED00E000B585B000214FF0FF3004F0B3F81F4B18601F4805F0BAFB01E00AF029F91D4B1B78022B90
:400A4000F9D11C4803F002F84FF0FF31164B186804F002FB0AF01AF9174B1B78FBB1174B5B78174AD35C13F0FF0F18D1002302930393144B01930123ADF808301223ADF891
:400A80000C3001A90D4803F0B1FA0B4B586010B90AF0FCF803E001460B4806F071FD002002F08CFDD0E700BF143603088D0908106C360308E5090810C46A0208683603080F
:400AC00084360308F84202083899081010B51D4C1D49204602F0DCFBB4F90030002B08DB5A0903F01F00012181406032174840F82210002B08DB590903F01F03012202FAFF
:400B000003F3124A42F82130114C1249204602F0BFFBB4F90030002B08DB5A0903F01F00012181406032094840F82210002B08DB590903F01F03012202FA03F3034A42F85D
:400B4000213010BDF49908109D0B081000E100E0EC990810590B081008B50D4BB3F90030002B0DDB5A0903F01F03012101FA03F32032084941F82230BFF34F8FBFF36F8F1B
:400B80000220FFF749FD0222034B9A6008BD00BFEC99081000E100E08003324010B5144BB3F90040002C08DB630904F01F0101228A4060330F4941F823200F4A01210F48CF
:400BC00002F04CFD002C08DB620904F01F04012303FA04F4074B43F822400020FFF7C2FD0020FFF719FD0222054B5A6010BD00BFEC99081000E100E01CA3081000003840B9
:400C00008003324000B583B005F026FB05F082FB05F098FB00F028FA05F040FB05F0EAFA1B4C2068002302221946406806F022FD2068002302221946806806F01BFD002016
:400C4000FFF7A2FDFFF742FF62B60822114B9A60002401940123009323464FF4C8720E490E4804F02FFC01940223009323464FF480520B490B4804F025FC04F055FC0A48D0
:400C800006F0F0FC4FF49071084802F05FFBFEE7C44602080003324070990810D90808107C9908101D0A081088990810AC99081008B54FF4A971024802F048FB08BD00BFCB
:400CC000AC99081008B5012000F0D2FD08BD00BF704700BF5C4AD2F8803303F00F0303F1D00152F8212002F00702032A04D0042A05D092B9554914E0554A116811E003F1AF
:400D0000C002514951F8222002F01F02112A06D0132A04D04FF4FA4103E04E4901E04FF400418BBB484BD3F8902502F00100D3F88825C2F30172D3F8883513F0405F07D04D
:400D4000414BD3F88835C3F30173012B02D102E0012300E0002303B108B9032A46D13A48D0F88025C2F31103D0F88425C2F30C02D0F88005C0F300600130B1FBF2F202FB6A
:400D800003F2B2FBF0F131E0012B2FD12E4BD3F8402602F00100D3F80026C2F30172D3F8003613F0405F07D0274BD3F80036C3F30173012B02D102E0012300E0002303B1EA
:400DC00008B9032A12D12048D0F8002602F07F02D0F80036C3F30423D0F80006C0F3044002FB01F2B2FBF3F2B2FBF0F1164BD3F88033C3F3011321FA03F215494A6016488A
:400E0000D0F89030C3F3072301330069000E0130B2FBF0F08860B2FBF3F3CB600B6103F5742202F23F220D48A0FB0202C2F387420A7503F2E7330A4AA2FB03239B098B6145
:400E4000DB03CB61704700BF0000264000127A00FC42020800366E010000214083DE1B43D34D621008B50D4802F0F2FBFFF730FFFFF730FF00221146042000F0ABFA0848A4
:400E800000F03EFB074B1B6893F8513013B1064800F0A6FB00F0E8F908BD00BFB89D0810CC6A020864360308B899081008B502F0B8FA074AD2F8883043F47003C2F8883025
:400EC000BFF34F8FBFF36F8F02F0AFFA08BD00BF00ED00E02DE9F04182B006460C4690461D461C4B984201D11B4F00E01B4F009700231A465821304601F0BEFB3B46002259
:400F00002146304601F026FD0097002301225821304601F029FC002409E02A1B013A0097002342441946304601F0BAFC01346B1E9C42F2DB0097002342460121304601F061
:400F4000AFFC3A460021304601F078FC002002B0BDE8F08100006240183603081C370308F8B507460D461646002409E005EBC4020323043215F834103846FFF7ABFF01349D
:400F8000B442F3D30020F8BD2DE9F04182B006460C4690461D46154B984201D1144F00E0144F009700231A465821304601F064FB3B4600222146304601F0CCFC002409E0FF
:400FC000291B01393B46002218F80110304601F0C1FC0134AC42F3DB3A460021304601F02DFC002002B0BDE8F08100BF00006240183603081C370308F8B507460D461646C0
:40100000002409E005EBC4020323043215F834103846FFF7B9FF0134B442F3D30020F8BD10B504462146034800F0B0FC0028F9D010BD00BF00006640054BD3F80833C3F3C2
:401040000803002BF8D0024BD3F84003704700BF0000664008B50249024801F067FD08BD183603080000624010B5144B1B788BB9134C144A1449204601F008F9134A14496D
:40108000204601F011FA1349134802F001F901220A4B1A70104BB3F90030002B08DB590903F01F03012202FA03F30C4A42F82130034A136843F00043136010BD4C6C020837
:4010C0000000624018360308249A081000127A00801A0600551008101C9A081000E100E01F4B98422DD00CD840282ED003D8E8B1102828D02FE0802829D0B0F5807F28D06C
:4011000029E0184B984228D006D8B0F1204F0DD0154B984212D01EE0144B98420AD00133984209D0023B984215D101E0002070470F4870470F4870470F4870474FF4A000D0
:401140007047074870470D4870470D4870470D487047034870470C4870474FF4A400704706005200010000F0090000A0040000F001005200020052000300520001005000B0
:401180000200500005005200FF00520038B5124B1B6893F83130012B04D840F2C3110F4802F0D4F80C4B1D682A6AB5F8B03013442C46D5F8B420D358002B0BDB084B1868E3
:4011C000FFF78EFF6B6801229A6063689B68002BFBD138BD034838BD64360308389A0810506C0208020050001A4B186128B102230370FF23437000234380174B1B6893F861
:4012000050202AB300B583B0B3F93830ADF80030002301931149684602F03AF8BDF90030002B08DB590903F01F03012202FA03F30B4A42F82130084B1B6893F8513023B197
:4012400002220849012000F077FA03B05DF804FB704700BF506C0208643603087947020800E100E03148020808B50248FFF7BCFF08BD00BF646C020838B50B4B1B68D3F8DA
:40128000B4301B58002B0DDA0D4604460B0C1B0423B140F2D521054802F058F8A9B26160002038BD024838BD64360308789A081001008A0038B50368002B01DA002300E03C
:4012C000094B73B90D460446C2600B0C1B0423B140F2BB21054802F039F8A9B2A160002038BD014838BD00BF01008A00789A081038B504460D4619B99921084802F026F88E
:40130000074B1B68D3F8B4301B59002B03DAE3682B60002038BD034838BD00BFB89A08106436030801008A00254B1B6893F8313083423AD900293AD00B6813F01F0F38D192
:4013400070B50D4604461E4B1B6893F83130984204D340F2C3111B4801F0F8FF184B1B68186AB3F8B03004FB0304174E34602A68D2080021686805F089FC00212046FFF78B
:401380007BFF346825B940F293310E4801F0DEFF2A4600212046FFF78DFF60B900210A4B1868FFF769FF40B970BD084870470748704706487047064870BD054870BD00BF4D
:4013C00064360308789A0810686C020803018A0001018A0010B504461346B2B9A9B9124B1B6893F83130984204D340F2C3110F4801F0ACFF0C4B1B681A6AB3F8B03004FB93
:4014000003240B4B1C60002010BD43B149B1084A51609360111D2046FFF786FF10BD054810BD044810BD00BF64360308789A0810686C020803018A002DE9F0411B4B1B68A9
:40144000DC68236883422CD90D464609A0EB4610012303FA00F819B901F0E3FF074600E00027124B18680368002B01DA002300E00F4B83B9626852F8263018EA030F05D004
:4014800023EA080342F82630002400E0094C0021FFF7F2FE00E0084C25B9384601F0C5FF00E0064C2046BDE8F08100BF686C020801008A00020188000301880004018A0063
:4014C0000B4B1B68DB681A6882420CD94109A0EB4110012202FA00F05B6853F82130184203D004487047044870470448704700BF686C02080101880004018A00000188009C
:40150000024B1B680BB9014B18607047746C02082DE9F8430446884691461D46089F2C4B1B681BB9B5212B4801F010FF284B1B682C2000FB04F01C18EEB21E50C5F30723FC
:4015400063602D0CA560244B1B6893F831309E4204D340F2C311214801F0F8FE1E4B1B68196AB3F8B02006FB02162661666893F832309E4204D340F2DF11184801F0E6FE2C
:40158000154B1B681D6A803605EB46156561A668330C1B0423B14FF4FF71104801F0D6FE330C1B0423B140F2FF110C4801F0CEFEB3B243EA0646AE60C4F81C90C4F82080B5
:4015C0000023A36117B1B7F90030A381BDE8F883746C0208F89A081064360308789A0810F0B58FB0044618B95221274801F0AEFEA369072B03D95621234801F0A7FEE36A18
:401600001BB95821204801F0A1FE236B1BB959211D4801F09BFE07AD04F114060FCE0FC537682F6002AD26460FCE0FC533682B60164B1B68B3F93620079B1344ADF8303022
:40164000089B0D93A26AE16A0CAD00953B460A98FFF75EFF00210091069B0A460598FFF757FF216B284601F013FEBDF93030002B08DB590903F01F03012202FA03F3044A86
:4016800042F821300FB0F0BDF89A08106436030800E100E0F8B506460F461D4614461AB9FD211F4801F052FE1E4B1B681BB9FE211B4801F04BFE1B4B1B682C2101FB06309B
:4016C00001FB07314B68012202FA03F31B04466802FA06F60269EAB18F69EFB91268002A01DA002200E0104AC2B92288134323600369DC6001238B614D620469330C1B0478
:4017000023B140F2BB21094801F020FEB2B2A2600020F8BD0648F8BD0648F8BD0548F8BDF89A0810746C020801008A00789A081004028A0007028A00F8B505460F4616460F
:401740000E4B1B6823B94FF4AF710D4801F0FEFD0A4B1B682C2404FB0534236A23B94FF4B171074801F0F2FDE369B34204D9236A43F826700020F8BD0248F8BD746C020876
:40178000F89A08100A028A0038B504460D46074B1B6823B94FF4C871054801F0D7FD034B1B682C2202FB0434A56238BD746C0208F89A081070B582B000230193044620B90B
:4017C00040F2D111284801F0C1FD236923B94FF4E971254801F0BAFD636923B940F2D311214801F0B3FD236A23B94FF4EA711E4801F0ACFD6369DD682A0C20D012041A6006
:401800001B682069194B1B68D3F8B430C358002B15DA01A9FFF76CFD60B9019803681E0CDBB2E269934206D2226A52F8233013B1984700E0002631462069FFF71DFDADB2BB
:4018400075B16369ADB21D601B68636A1BB198470023636202E0A36A03B198470023A36163691B6802B070BDF89A08106436030810B50446074B1B6823B940F2B11106488F
:4018800001F064FD034B1B682C2000FB0430FFF791FF10BD746C0208F89A081010B50446104B1B6823B940F22B210F4801F04EFD0C4B1B682C2202FB0434B4F90C30002B58
:4018C0000DDB5A0903F01F03012101FA03F32032064941F82230BFF34F8FBFF36F8F002010BD00BF746C0208F89A081000E100E010B504460D4B1B6823B940F24B210C4850
:4019000001F024FD094B1B682C2202FB0434B4F90C30002B08DB590903F01F03012202FA03F3044A42F82130002010BD746C0208F89A081000E100E010B4D0F8003303F0EB
:401940000F03072B06D900230DE0D0F84043CC54013300E000239342F7D306E0D0F8404321F8134001339342F8D35DF8044B704710B51446D0F80833C3F308039A4200D395
:401980001C462246FFF7D8FF204610BD036813F4006F01D0802200E04022D0F80832C3F30803934203D0C0F84012012070470020704700BF10B4D0F8003203F00F03072BEF
:4019C00006D900230DE0CC5CC0F84042013300E000239342F7D306E031F81340C0F8404201339342F8D35DF8044B704710B51446036813F4006F01D0802200E04022D0F878
:401A00000832C3F30803D31AA34200D81C462246FFF7D0FF204610BD02E0C0F84012013A002AFAD1704700BF10B51446036813F4006F01D0802200E04022D0F80832C3F340
:401A40000803D31AA34200D81C462246FFF7E4FF204610BD10B54A6841F201039A4231D1D0F80833C3F30803B3B10B6A43F040030B620B7873B1D0F8043343F48033C0F887
:401A80000433D0F8043323F48033C0F80433D0F8043301E0D0F840330B6A43F020030B620B6A23F010030B62036E23F4204303660023C0F8C83F0123C0F8C03FD0F8C03F04
:401AC000202221E0D0F80832C3F30802D0F80832C3F3C03313440A6BD21A4A630A6A12F0080F05D1CA6A1A44CA628A6AD31A8B620B6A43F004030B620B6A23F001030B62CD
:401B00000023C0F8883F1022D0F84C4F40F201131C420DD0036823F00043036000238366C366036843F000430360036842F040024FF080534B604B6C0BB11046984710BD3F
:401B4000D0F80C3F13F0020F1DD00222C0F8002FD0F8002FD0F8002F12F0040F02D04FF4001001E04FF480108A6802438A604A68B2F5B81F07D00A7B12B14FF4C01201E004
:401B80004FF4B0124A6013F4807F03D08A6842F400028A6013F0010F03D08A6842F480028A6040F21112134202D04FF4C0134B60704700BF0023C0F8C83FC0F8883F836E0A
:401BC00023B140F21713C0F8083F704740F21313C0F8083F182383664FF4B8134B60704738B5D0F80C4F036E23F4807303660023C0F8C83FC0F8883FC0F8083F40F2171364
:401C0000C0F8003FD0F8003F8B6823F480338B604B7B13B18B69CB610BE08D69D0F80822C2F30802D0F80832C3F3C0331344EB1ACB6140F201131C421BD0036E9B0F032BB7
:401C400005D114F4827F14BF0123002300E001235BB1036823F00043036000238366C366036843F00043036003684FF080534B601BE00B7893B1D0F8043343F48033C0F833
:401C80000433D0F8043323F48033C0F80433D0F804330123C0F8C03FD0F8C03F0B7B0BB10B4B01E04FF080534B604A6C72B14B7B13B14FF4802001E04FF400308B6813F0CE
:401CC000F87301D04FF400231843904738BD00BF000010100346002940DB11F0C00F06D0002181664FF0805050602F4844E011F4807F36D111F0010F0ED050682B498842B7
:401D000032D1196E11F0804F0CBF012100214FF08050506026482FE011F0020F06D050682249884223D10021224825E011F0100F05D04FF080515160002108461CE05068CD
:401D40001A49884216D1517B11B14FF4881101E04FF4A0115160002108460DE0012116480AE00121154807E00121114804E00021134801E00021084679B1196821F000410B
:401D8000196000219966D966196841F0004119601B684FF080535360704740F21712C3F8002FD3F8003F70470820AA00000013100620AA000420AA000320AA000720AA00A9
:401DC0000520AA00036853B110B50446012001F0B1FA2368013B23601BB1002010BD002070474FF0004010BD70B505460C4691F8243013F0FF0F0ED1CB6A63B94B6C0BB160
:401E000008209847E36AB3FA83F35B0984F824300123C5F8883F94F8243013F0FF0F16D063783BB12B6813F4006F01D0802202E0402200E00122FF212846FFF7F5FD236BEA
:401E400018442063236A43F00803236270BDE26A012A11D963780BB1013A00E00122A16A2846FFF7C3FD236B03442363E36A1B1AE362A36A1844A062D5F80832C3F308034C
:401E8000802B23D0E36A012B20D101F0CAFAA36A1B78C5F840324026C5F8806FD5F8803F01F0C3FA236B013323630023E362A36A0133A362C5F8886F63783BB1236A43F019
:401EC00002032362636C0BB10420984770BD00BF38B54B68B3F5A81F03D14FF4C0134B6038BD4B68B3F5A01F4DD10C4605464A69012A11D94B780BB1013A00E00122216961
:401F00002846FFF773FDA3690344A36163691B1A6361236903442361D5F80832C3F30803802B14D06369012B11D101F07AFA23691B78C5F840324023C5F8803FD5F8803F0B
:401F400001F073FAA3690133A361002363616369CBB9237B33B14023C5F8883F4FF4A813636005E00023C5F8883F4FF4B0136360637843B1A36843F40033A360636C13B12F
:401F80004FF48030984738BD70B504460D468A6C82B3036813F4803F06D0D0F84C3F13F0400F03D0022002E0002000E00020236E13F4006F06D1D4F84C3F13F0800300D03F
:401FC00001231843C0B190470123C4F8C03FD4F8C03F024648B91023C4F8403FD4F8403F40F2D113C4F8483F07E040F2C113C4F8483F02E0002200E00022D4F8043243F4A6
:402000008033C4F80432D4F8043223F48033C4F80432D4F804320AB9012300E00223E366002A59D1666E06F010066B6C23B10EB1012000E0022098477EB141F202036B6034
:402040002B6A43F001032B626B6B2B63002385F824300123C4F8883F70BD41F201036B602B6A43F010032B620123C4F8C83F2B78BBB1EB6BBBB1236E43F400532366ED6BBD
:40208000802D05D9A5F18003802B0ED8813D0DE0013D236E43F4004323660023C4F8C83F04E0002502E0002500E03F25236813F4006F01D0802300E040239D4204D34FF483
:4020C0002071064801F042F9D4F8043323F0FF03EDB21D43C4F8045370BD00BF389B081038B54B68B3F5881F03D0B3F5901F1AD038BD0B69D0F840231A708B6901338B619F
:402100004B69013B4B612BB10B6901330B610423836638BD0B7B13B14FF4C01301E04FF4B0134B6038BD0C4605464A690969FFF71FFCA3690344A36163691B1A63612269AD
:4021400010442061012B24D82B6E23F480732B666369012B16D12B6813F4006F01D0802300E0402323B94FF42071184801F0EEF8D5F8043323F0FF03C5F804334FF48813BD
:40218000636038BD0023C5F8C83F4FF4B013636038BD402B01D89C1E00E03F242B6813F4006F01D0802300E040239C4204D34FF42071064801F0CAF8D5F8043323F0FF021F
:4021C000E3B21343C5F8043338BD00BF389B081038B5CB6B002B50D00B78002B3FD00C460546D0F80423D2B20132896BFFF7C0FB236C03442364E36B1B1AE363A26B1044C7
:40220000A063802B06D9A3F18002802A0FD8A3F181040DE02B6E43F400432B66E36B0BB15C1E00E000240023C5F8C83F00E03F242B6813F4006F01D0802300E040239C4270
:4022400004D34FF42071104801F080F8D5F8043323F0FF02E3B21343C5F8043338BD0123C3668A6B0B6CD0F84003D0540B6C01330B64CB6B013BCB6338BD0223C3660023FE
:40228000C0F8C83F38BD00BF389B0810F8B50B78012B03D00C7A1CB9002702E0002700E00127002800F0A780002900F0A680002A00F0A58016460C460546013BDBB2022B52
:4022C00003D94F214F4801F041F8637803B163791BB150214B4801F039F894F90330002B03DA5121474801F031F8237913F0010F03D05221434801F029F82369102B03D95C
:402300005321404801F022F8E368102B03D954213C4801F01BF8637913B14FF4803100E00021E27912B14FF4807300E000230B4343F400632B60A37913B94FF4006300E06A
:4023400000232269013A02F00F021A43E368013B1B01DBB21343227843EA82732B6617B140F2073301E040F20713C5F800330FB1254B00E0254B2B6763780BB17F2300E0C5
:402380000023C5F80433E3785B00DBB2227943EA0243C5F810331E4BC5F80032A3780BB1402300E00123C5F804320023C5F8C83EC5F8883EC5F8C83FC5F8883FC5F8083F78
:4023C0002378022B02D040F2D11300E00023C5F8483F63783370A37873704FF0805373600020B060B06130623064F0633063F0627064B064F8BD0748F8BD0648F8BD0548F5
:40240000F8BD00BF7C9B081003002A0013102A00070101000120AA0038B505460C4621B940F2C321194800F091FF2B6E9B0F012B17D1174B2344174A93421ED9A4F5BD139A
:40244000A3F5D66302F5611202F56162934216D9A4F57104A4F533440F4B9C4211D80F4838BD84B1286EC0F303102B6E03F00F0318440230B4FBF0F038BD094838BD094840
:4024800038BD002038BD002038BD00BF7C9B081020AD88FF405B730040555C0440420F00801A0600A08601002DE9F84307468846914622B940F21221624800F047FF08F104
:4024C000FF34614B9C4204D940F213215D4800F03DFF3B6E9B0F012B0DD149463846FFF79BFF0546D7F8003323F40073C7F80033564B3B67A2E0544B9C421FD8544B984593
:4025000009D8A9F5BD13A3F5D663524A934218D90021012328E0504B984507D84F4B4B444F4A934213D9002101231DE04D4B4B444D4A934212D90021012315E000210123B3
:4025400012E0002141F288352E460B460CE000214FF461754FF4C8660B4605E001214FF4BE754FF41B760023002B66D13F4BB3FBF9F3B6FBF3F404FB03F2964200D901343F
:40258000102C00D910240F2C8CBF00220122B5FBF3F606FB03F39D4200D90136102E00D91026A519B9FBF5F50FE022B10F2C09D80134002206E00F2E04D801360F2C8CBFEE
:4025C00000220122A519B9FBF5F5454502D9A3191F2BEAD941B1D7F8003343F40073C7F80033234B3B6707E0D7F8003323F40073C7F80033154B3B67E31F092B04D940F2C0
:4026000083511C4800F0A2FE3B6E23F0F003013C2401E4B223433B66731F0B2B04D94FF4B461144800F092FE3B6E23F00F03013E06F00F061E433E6600E000252846BDE816
:40264000F88300BF7C9B08103F420F0013102A00A0860100502D1900801A060020AD88FFA0432100807E25FFC02BAF0000CA9A3B03002A00BC9B08102DE9F04182B00546A4
:402680000C4617469846089E11F0800F04D04FF4D961314800F05AFE304B984504D940F2C9612D4800F052FE012F04D940F2CA61294800F04BFE0023C5F8483F7368B3F105
:4026C000805F41D14FF47A7303FB08F30193244B7360012F14BF00230123737340F21713C5F8003FD5F8003F0423C5F8C03FD5F8C03FD5F8043243F48033C5F80432D5F8FA
:40270000043223F48033C5F80432D5F804326400E4B23C43C5F840420223AB66D5F8004F24F0F804E405E40DD5F8403F03F0C0031C4301A8FFF746FB54EA0001EED03246F9
:402740002846FFF7C7FA00E0064840F2D113C5F8483F02B0BDE8F0817C9B081037894100000013100220AA002DE9F04182B005460F4614469846089E11F0800F04D040F238
:4027800029712A4800F0E2FD294B984504D940F22A71264800F0DAFD012C04D940F22B71224800F0D3FD736813F4801F39D04FF47A7303FB08F301931E4B7360012C14BF89
:4027C0000023012373736B6E13F0200F01D0092300E00123AB666B6E13F0200F05D0002009E001A8FFF7EEFA00E0002018B9AB6E13F0010FF5D170B97F00FFB23C43C5F8C7
:402800004042D5F8000F40F20714044001A8FFF7D9FA2043F5D0324601462846FFF75AFA00E0054802B0BDE8F08100BF7C9B081037894100000013100220AA0070B582B06E
:4028400005460C461646134B994204D940F28C71114800F07BFD736813F4801F17D04FF47A7303FB04F401941823AB66D5F8004F24F0EE04E405E40D01A8FFF7A3FA54EA74
:402880000001F3D032462846FFF724FA00E0034802B070BD378941007C9B08100220AA002DE9F04383B0074688461C460A9D914622B94FF4FB61244800F048FD234B9C4276
:4028C00004D940F2D971204800F040FDB8F1010F04D940F2DA711C4800F038FD6B68B3F5881F2BD14FF47A7303FB04F40194D7F8C06F06F00406D7F8001F40F201140C40F6
:4029000001A8FFF75FFA44EA00010EB90029EED046B1D7F8403389F800300523C7F8C03FD7F8C03F2A463846FFF7D4F9034630B9B8F1000F03D10422BA6600E0044B1846E2
:4029400003B0BDE8F08300BF7C9B0810378941000220AA00F0B583B005460F4614461E46134B9A4204D940F63201124800F0EEFC7368B3F5A01F17D14FF47A7303FB04F497
:402980000194C5F84072D5F8004F24F0F804E405E40D01A8FFF716FA54EA0001F3D032462846FFF797F900E0034803B0F0BD00BF378941007C9B08100220AA0070B504463B
:4029C0000E46D0F88C3E13F0010F07D04FF480534B600123C0F8803ED0F8803ED4F84C5F40F201131D420FD0336A15F4807F02D04FF4807200E08022134333620023C4F833
:402A0000C83F45F010050EE015F0100F0BD0D4F80833C3F3080333B1F36B23B10123C4F8C43FC4F8C83FD4F8CC3F13F0010F08D031462046FFF7CCFB0123C4F8C03FD4F8CD
:402A4000C03F15F0100F0AD031462046FFF702F81023C4F8403FD4F8403FD4F84C5F15F0C00F0DD031462046FFF78EFA0123C4F8803ED4F8803EC023C4F8403FD4F8403FBF
:402A8000D4F88C3F13F0410F08D031462046FFF7ABF90123C4F8803FD4F8803F70BD00BF70B506460D46D0F8004E14F0020F0AD0836E2BB1002383668B6843F080738B6021
:402AC0004FF4C0136B6014F0010F05D029463046FFF736F824F0040414F0080F08D029463046FFF7FDFA0123C6F8C03FD6F8C03F14F0040F08D029463046FFF7E9F90123A4
:402B0000C6F8803FD6F8803F6B68B3F5C01F03D129463046FFF764F86B68B3F5B01F03D129463046FFF746F870BD00BF08B54B6813F4801F02D0FFF7B3FF08BDFFF73EFF7B
:402B400008BD00BF2DE9F84305460C46036813F4006F02D04FF0800801E04FF04008D5F8007207F00F07A26A012A19D9D4F82490E262561EB9F1000F00D026B940F27351F6
:402B8000254800F0E3FB324649462846FEF72EFFA36A1B1AA362072F00D9400048446062D5F80832C3F30803984533D0A36A012B30D10023A362072F02D8636A1E7801E001
:402BC000636A1E8800F02DFCC5F840624FF40073C5F8803FD5F8803F00F027FCD5F8883F23F4007222F0010242F4007623F4EE6323F0030323B140F22A41084800F0A6FB68
:402C0000C5F8886F236843F002032360236B0BB101209847BDE8F883FC9B0810389B08102DE9F04105460C46036813F4006F01D0802600E040267608A769D4F81C8017B156
:402C4000B8F1000F04D14FF49961314800F07EFB424639462846FEF78BFE236A03442362E3691B1AE36173BBA368FBB1E3689E4201D8013E00E05E1E2B6813F4006F01D039
:402C8000802300E040239E4204D34FF42071214800F05CFBD5F8043323F0FF03F6B21E43C5F804630123C5F8C83F02E00023C5F8C83F636823F001036360236B33B30420BF
:402CC0009847BDE8F081A169D5F8002302F00F02072A00D940000844A0619E4216D95C1E2B6813F4006F01D0802300E040239C4204D34FF42071074800F028FBD5F8043353
:402D000023F0FF02E3B21343C5F80433BDE8F081FC9B0810389B0810002800F0A48170B50546002900F0A18116460C460B78022B03D93F21A24800F009FB637B023BDBB2E8
:402D4000062B03D940219E4800F000FBA37B3BB1022B05D0032B03D04121994800F0F6FA94F82130012B03D94221954800F0EEFA94F82830012B03D94321914800F0E6FAEE
:402D80002378012B06D86368083B082B94BF0023012307E0A37F2BB16368013B062B94BF002301231BB14521854800F0CFFAA368053B042B03D94621814800F0C7FA636921
:402DC000FF2B03D947217E4800F0C0FAA369FF2B03D948217A4800F0B9FAA37C6BB1237833B9A368092B05D1A37B2BB1012304E0012302E0012300E000231BB14A21704820
:402E000000F0A4FA636B23F4366323F00D031BB14C216B4800F09AFAE36B23F4EE6323F003031BB14D21664800F090FA2378022B01D1A37F13B16268013A00E00022237F99
:402E400013B14FF4803100E00021A368082B02D84FF4006300E000230B4302F00F02134343F000732B60226B2B6813F4006F01D0802300E040239A4203D36221504800F0F6
:402E800065FAA26B2B6813F4006F01D0802300E040239A4203D36321494800F057FA626A2B6813F4006F01D0802300E040239A4203D36421424800F049FA23781B0603F0AF
:402EC00040732B64637F0BB1402200E00022A37C13B14FF4806300E000231343227C12B14FF4807200E000221343627C12B14FF4007200E000221A43E36A013B1B0403F4EA
:402F000070231343627B013A02F007021343A27B120102F030021343AB64237B13B14FF4807200E00022E37B23B92378022B03D1012302E0012300E0002313B14FF4007370
:402F400000E000231A43A368013B03F00F031343C5F80033227DA3691B0403F47F031343C5F81033E26AD5F8003303F00F0303339A4201D3102A03D97A21114800F0E6F9B6
:402F8000E37F23B12378012B03D0002302E0002300E0012313B14FF4807200E00022637B013B03F007031A43A37B1B0103F0300313436B64237B2BB14FF4807203E000BFD0
:402FC0003C9C08100022A368013B03F00F0313432278012A02D14FF4803200E000221343C5F8003294F83030C5F8043394F8203013B14FF0007200E0002294F82130012B0D
:4030000002D14FF0807300E00023134394F82820012A02D14FF4803200E00022134394F8242013432B6594F83830C5F80432636B23F4926323F002031B051B0DC5F8C83F78
:40304000E36B23F08C035B055B0DC5F8883F76B1002070603060B060F0603062F0623063044B736370BD04487047034870BD002070BD00BFEFCDAB000160AA000B694A6924
:40308000934202D34869181A7047CA694869101A184470472DE9F04107460D46036813F4006F02D04FF0800801E04FF040084FEA5808D7F80863C6F308062C6926E0013478
:4030C000EB689C4200D100246B699C420FD12B6B0BB1082098476B699C4208D10023C7F8C83F0CB1013C13E0EC68013C10E0D7F84023D7F8003303F00F03072B02D8AB6885
:403100001A5502E0AB6823F81420013E002ED6D12C61EC6829463846FFF7B0FF201A804519D908B1441E00E000243B6813F4006F01D0802300E040239C4204D34FF42071EC
:40314000064800F003F9D7F8040320F0FF03E0B21843C7F80403BDE8F08100BF389B081038B504460D46D0F8003E13F0080F35D0D0F8CC3F13F448730AD04A681A434A60E3
:40318000C0F8C03FD0F8C03F0B6B0BB110209847D4F8CC3F13F4006F09D06B6843F400636B604FF40063C4F8C03FD4F8C03FD4F8CC3F13F0010F11D0EB6923B129462046FE
:4031C000FFF72EFD05E0AB681BB129462046FFF761FF0123C4F8C03FD4F8C03FD4F8003E13F0040F2ED0D4F88C3F13F4A0630AD02A681A432A60C4F8803FD4F8803F2B6B67
:403200000BB120209847D4F88C3F13F0010F08D029462046FFF796FC0123C4F8803FD4F8803FD4F88C3F13F4007F0BD00022C4F8882F2B6823F001032B60EA622B6B0BB14A
:403240000220984738BD00BF38B50D4B9A680D4B9A420FD10D46044621B940F237110A4800F074F804F11003064A52F8230042F8235038BD1030054B53F8200038BD00BF89
:4032800000ED00E0004002087C9C08100000081048B338B504460D464368072B03D93221134800F053F8B4F900306268002B08DB5201D2B203F1604303F5614383F800232B
:4032C00005E003F00F035201D2B20A49CA540A4B9A680A4B9A4208D12946B4F90000FFF7B3FF002038BD06487047002038BD00BF7C9C081014ED00E000ED00E00040020861
:403300000100560010B5044605E0084B186800F07FF8A4F50044B4F5004FF6D8044B186800FB04F000F074F810BD00BF184302081443020808B5034B1B7800FB03F000F07D
:4033400067F808BD1043020801BEFEE738B50D46044C18220146204604F03EFAA5610020FFF7F2FFA84C0208FEE700BF08B50268254BDA6142681A6282685A62C2689A6212
:403380000269DA6242691A6382695A63C2699A631E4A916AD963D16A1964516A5964516B9964926BDA64F1EE103A13F0900F27D0026A154B1A65426A5A65826A9A65C26A1C
:4033C000DA65026B1A66426B5A66826B9A66C26BDA66026C1A67426C5A67826C9A67C26CDA67026DC3F88020426DC3F88420826DC3F88820C26DC3F88C20026EC3F8902083
:40340000FFF7B2FF08BD00BFA84C020800ED00E00230800803D001300238FCD100BF00BF7047EFF3108072B6704780F31088704710B30246C3680BB303680BB330B405790A
:40344000114B03EB85035C682346002103E0934205D019465B69002BF9D1012000E0002080B124B9084B03EB85056A6000E04A6111610023536105E000207047002070475C
:403480000020704730BC7047786C020850B310B402460479164B03EB840359680B4602E0934204D05B69002BFAD1002000E00120D0B18A420ED14B6933B10D4A02EB84043A
:4034C000636000221A610FE0094B03EB84040023636009E01A69596951615A6922B11B69136101E0002070475DF8044B704700BF786C020830B583B004460D46022808D9DF
:40350000042806D0032804D040F6B2112848FFF71DFF6B1EDBB2012B08D9042D06D0082D04D040F6B3112248FFF710FF214800EB84004468042D12D0012D1AD111E0A368C7
:403540001D420AD1E3681A6800925B6801932368294668469847174B9C61646902E0002000E0002014B3144B9842E8D1012DE6D11CE0022D01D104E01C466369002BFBD102
:4035800003E00C4B9C6904B1246900200CE0A3681D4208D1E3681A6800925B68019323682946684698472469002CF0D103B030BDC09C0810786C0208FF00420070B50546D1
:4035C000012804D94FF4E0711D48FFF7BFFE1D4B5B682BB101210020FFF78CFF044600E000242CBBFFF71DFF0646164B5B681BB104210020FFF77EFF134A136923F0040321
:403600001361012D01D030BF07E020BF0D4B1B7803B120BF01220B4B1A703046FFF705FF084B5B684BB108210020FFF763FF04E002210020FFF75EFF044C204670BD00BFA2
:40364000C09C0810786C020800ED00E0FF004200014B1860704700BF64360308002800F0AC8070B40446002A00F0A98092F828300BB1012500E00025137F0BB1022300E0EA
:4036800000231D431669B60406F4802645EA060395682D0405F440351D431668300600F0E0602843136B556B43EA45031B0503F440130343906B43EA8000052E03D1D368DE
:4036C0001B029BB202E053681B029BB20343081D800123501368062B08D104EB81130120C3F808013F20C3F828011DE0936843B904EB81130020C3F808013120C3F828013A
:4037000012E0012B08D1506904EB8113C3F808011C20C3F8280107E004EB81130120C3F808011220C3F82801106A04EB8113C3F80C01506AC3F810015069C3F81401906940
:40374000C3F81801136EB3F1FF3F17D0106C00F00F00966C360206F470663043156D2D0405F470250543906D000380B228431B01DBB2034304EB8110C0F82031D36B03F064
:403780000303566C360106F030063343D56C2D0205F440752B43506D8001C0B21843D36D9B0003F00C03034304EB8114C4F82431D36AC4F83831002002E00248704701486B
:4037C00070BC70470100B60010B5012902D0082929D02EE01A4B1B78012B2CD00320FDF76FFE184B984228D0FFF71BFE164B1860022007F04DFA044607F055FA022C05D181
:40380000032805D0052805D1002404E00F4C02E0002400E00D4C0D4B9C420FD10A4B1868FFF703FE0AE0084B1868FFF7FEFD002404E0064C02E0054C00E0044C204610BD63
:403840006C36030801018800B46C0208FF00420008B502291CD0082914D001291ED1124B1B78012B1CD0FFF7DCFD104B5860022007F00EFA022815D00C4B5868FFF7D5FDAB
:403880000B4808BD094B5868FFF7CFFD002008BD064B5868FFF7C9FD054808BD044808BD034808BD002008BD6C360308B46C0208FF00420010B5044C2046FFF7E7FD04F1EE
:4038C0001800FFF7E3FD10BD1C430208B0B110B50B4A9060C36A03B1D3600024094B1C70094B1C70094B1C60094B1C7000F068F9084B1C70084B1C70204610BD0748704749
:40390000B46C0208803603088436030888360308853603086B360308703603080100160070B59AB0404D15AC28686968AA68EB680FC4286920604C22002102A803F0A6F9A2
:403940003A4B029315AB049341F6E433ADF8143005238DF81630364B9B681B69069340F26A3307931B23ADF82030ADF8223003238DF8243004238DF8253006228DF8262085
:403980008DF8283008238DF829305023ADF84C3001238DF85030274C2046FFF749FD04F11800FFF745FD08A807F0C8F90346002836D1214B03931E4B9B68996B89B10B462D
:4039C0000DF12A0220311E685D689C68D868166055609460D060103310328B42F3D11B88138002A807F072F90346B0B90122134B1A700023124A1370124A13700C4B9B681E
:403A00001A6A00929B6ADB88ADF804300923ADF8063068460FF02CFE034600210A4A116018461AB070BD00BF709E081061410810B46C02081C4302083C4D02086C3603085B
:403A400074360308753603088836030818B1034A1061002070470248704700BFB46C02080100160008B5044B1B689847034B1B6803B1984708BD00BFD86C0208C46C0208D5
:403A800008B510B1034A52689047034B1B6803B1984708BDD86C0208C46C020870B5C0B006460C4615464FF480720849684603F0E2F805E016F8012B6A401DF80250013CFD
:403AC000002CF7D1284640B070BD00BF849E081008B50022FFF7E2FF08BD00BF08B5FFF7A0FC08BD08B5FFF7A0FC08BD08B50120FDF7FEFE08BD00BF08B50120FDF7CEFEFC
:403B000008BD00BF08B5094B58601960012208491046FDF711FE034628B9002205490120FDF70AFE0346184608BD00BFD86C0208813A0810653A081038B515460B46024657
:403B400001210020FDF7A6FD044618B129460120FDF71AFE204638BD704700BF704700BF00207047004870471100160000487047110016000048704711001600004870472E
:403B8000110016000048704711001600004870471100160000487047110016000048704711001600004870471100160000487047110016000048704711001600704700BF5E
:403BC00008B5024800F060FE08BD00BF98440208F8B5022872D8002972D10022134606E03B4CE45C012C01D90132D2B20133002BF6D0012A0CD1374B1B681C6801EB81026E
:403C0000930023445B681B79023BDBB2012B59D8314B1B78002B57D1304B1970E0B92D4F3C68236801EB8105AA009D186668C1EBC1014B001E44B188298221681144496835
:403C40006468E45A0C8039680C682244526849680B445B8853801EE001281CD11D4F3C68236801EB8105AA009D186668C1EBC1014B001E44B1892982216811444D68616819
:403C800019440989298039680C682244526849680B445B895380124B18700E4B1B6818680E4B1B7803EB83039A0010440BF0A0FB034650B90121084A117006E0094B04E0F6
:403CC000084B02E0084B00E0084B1846F8BD00BF74360308BC6C0208753603086A360308853603080100160002001600FF00160070B439B9144B1B681B689968CE7F0023F9
:403D00001D460EE0104B1B681B68D968CE7FF6E7CA5C52B10133CC5C1B2C01D0134400E00125B34201D2002DF2D05DB101338279CA54002204E0D4180134855C0D550132BD
:403D4000052AF8D970BC7047BC6C020870B504460FF0A8FC054620BB134B1968086A228902EB82029300143B03445A6812F0007F17D0E67B1B695A68CB69D21A06EB8606F2
:403D8000B318A28821680948184402F074FFE37B074AD35C012B04D1064A137843F002031370284670BD00BFBC6C020878360308703603086B36030830B587B002891A4B50
:403DC0001B685B699B889A4229D1044601AB07C883E807000022ADF81020A289ADF8122040228DF814201846FFF7B0FF054680B923681B7803F002039BB22BB10B4B1B6899
:403E000021460B48984704E0084B1B68214609489847094A137803F0FE03137000E00025284607B030BD00BFBC6C0208C06C02080500010006000100803603084288531EFC
:403E40009BB2162B1AD84178D1B910B40F4B1868046A02EB82029300143B23445A6812F0007F0FD01B695A68C369D31A01EB81011944074B5B5A1380002004E001207047F7
:403E80000120704700205DF8044B7047BC6C020878360308C8B1104B1B68196A038903EB83039B00143B0B445B6813F0007F0ED100B587B001AB00210491059107C883E86F
:403EC00007001846FFF742FF03E00E2070470120704707B05DF804FBBC6C0208A1B1A8B110B586B0034601AC00220492059207C984E807001B88ADF8123040238DF8143065
:403F00002046FFF723FF03E00E2070470E20704706B010BDF0B583B000283ED006460388ADF804309DF8053013B92348C35C00E00023012B34D9172935D87378D3B10025D8
:403F40001E4834E0601800EB80008300143B7344586810F0007F0BD070781B695B68FD695B1B00EB8000164D2844C35C13800125013401E000242546124B1F68D7F820E0CC
:403F800001EB81008300143B73441B895B1A9C420CD8002DD6D0094809E00025074806E00025094803E00025044800E0034805B1002003B0F0BD00BF743603080100160013
:403FC00078360308BC6C02080700160000B583B00DF10602FFF79EFF20B9BDF8060000F0010000E0002003B05DF804FB30B3034631B330B587B00288ADF804209DF8052073
:4040000012B91448825C00E00022012A1AD91D460C460846FFF73EFFB0B921892846FFF7D5FF98B102AB94E8070083E807002A88ADF8142018460EF071FC08E006487047AE
:4040400005487047054802E0054800E0054807B030BD00BF743603080100160007001600020016001700160000B583B00023ADF804308389ADF800300389ADF802301223A5
:404080008DF80430084B1B7813F0010F09D129B18DF8051068460EF021FC02E0C0680EF04BFC03B05DF804FB8036030810B4044688B10023194606E0104A52F823209442B4
:4040C00000D1012101330D4A1279934206D20029F2D0002003E00021094800E0002050B949B9064B1B792BB9044A42F823400133137100E003485DF8044B70478C360308E0
:40410000010016000300160070B506460D460020044606E0084B53F824302946304698470134054B1B799C4204D2044B1B7813F0010FEFD170BD00BF8C3603088036030889
:4041400083792BB100207047C25C32B9013300E00023052BF8D9002070470120704700BF70B58CB004460D46C04A137843F00103137044F20803984200F04C823CD842F273
:404180000403984200F0F18019D841F20203984200F0188108D8B0F5805F76D041F20103984200F00C8155E341F20303984200F0428141F20403984200F047834AE343F2CB
:4041C000190398425BD00AD843F20103984200F0BA8043F21203984200F0B5803AE344F20603984200F01A8200F2CD8144F20403984200F033812DE345F20C03984200F059
:40420000DB821BD845F20103984200F046820AD844F20A03984200F0B38144F21003984200F0B18116E345F20203984200F07F8245F20303984200F093820BE345F21003A5
:40424000984200F0F4820AD845F20E03984200F0E88245F20F03984200F0E682FAE245F21703984200F0E98246F20103984200F0118245F21403984240F0EC82DAE27B4AE3
:40428000137803F0FE031370E4E2794B1E683046FFF756FF60B130460CF072F8744E00213068FFF725FD01213068FFF721FD37E0704B1A68936A1B791BB34FF0B05191F861
:4042C000043603F03F0391F8050600F03F0043EA801391F8030600F01F0043EA003391F8001601F07F0143EA4143126B1370614A1168096BC3F3072048701268126B1B0CBF
:4043000093705C4E3368186B0CF03AF833680021186BFFF7EDFC33680121186BFFF7E8FC544B1B68986A02300CF036FB0023059306933F238DF8143005A80CF045F8022240
:404340004D4B1A7086E200234B4A13704B4A13704B4A13700A20FEF7D5FF43F212039C4240F07882FFF7A6FA74E2464B1B6813F0010F40F06F820023ADF814308DF81630F8
:404380003C4E33689B6A93F900308DF8143005A80CF034F833689B6A93F901308DF8143001238DF81530FF238DF8163005A80CF025F8344A136843F0010313604AE2FFF7ED
:4043C000A3FE47E24978304B1B88ADF81430002319E02E4A32F81320ADF808209DF8092012B92B48825C00E00022012A0AD9274A12F81320914205D1244A32F81330ADF8AC
:40440000143002E00133002BE3D09DF81530FF2B05D104D140F2CA311E48FEF797FFBDF81430ADF82030ADF81C30C3F307232978194AD1540EE20B78002B40F00B820B7AAF
:4044400033B9164B0022DA809A80154A1A604B60064A137803F0FE031370FBE149790A4B1B88ADF81430002336E000BF803603084C430208BC6C02086C360308753603081D
:40448000F06C020888360308849F08106836030874360308889F081084360308F86C020820690208B34A32F81320ADF80C209DF80D2012B9B048825C00E00022012A0AD991
:4044C000AC4A12F81320914205D1AA4A32F81330ADF8143002E00133002BE3D09DF81530FF2B05D104D140F2CA31A448FEF72EFFBDF81430ADF82430ADF81430C3F30723FD
:4045000069789F4AD154EB78002B40F0A38169799C4B1B88ADF81430002319E0954A32F81320ADF810209DF8112012B99248825C00E00022012A0AD98E4A12F813209142E7
:4045400005D18C4A32F81330ADF8143002E00133002BE3D09DF81530FF2B05D104D140F2CA318648FEF7F2FEBDF81430ADF82830ADF81430C3F307230121834AD15469E199
:40458000FFF7C2FD66E12B78002B3FD1AB78012B02D100227D4B1A7069787A4B1B88ADF81030002319E0734A32F81320ADF814209DF8152012B97048825C00E00022012AF6
:4045C0000AD96C4A12F81320914205D1694A32F81330ADF8103002E00133002BE3D09DF81130FF2B05D104D140F2CA316348FEF7ADFEBDF81030ADF82C30ADF81030C3F38F
:404600000723FF2B02D0A978614AD1540222614B1A701FE102225F4B1A701BE1FFF774FD5D4B1B7813F0010F00F01481574B1B78012B03D10222554B1A700BE1032B03D10A
:404640000022524B1A7005E1022B40F0038100224E4B1A70514B1B685B68514A1178C1EBC10203EB42039A79002A00F0F3809B88002B00F0EF804B4B1B78002B40F0EA8002
:404680000120FFF7A5FA002840F0E48001223F4B1A70DFE0FFF738FDDCE00B88ADF800309DF801301BB90221334AD15405E023B940F286313148FEF749FE6A7829882D4B7A
:4046C00023F812106B780021374AD15403EB8301364E8819314B1B681B692A7802EB820202F55A72134453F8022F8A511B790371687800EB800004213044FFF7E9F96B788E
:4047000003EB830333441B7998420BD0284B1B680021284898476B7803EB8303981900229A51027129462046FFF7EEFC92E00B88ADF804309DF805301BB900210E4AD15488
:4047400005E023B940F286310C48FEF7FFFD6B7800210D4AD15429462046FFF7D5FC79E00B88ADF814301723ADF8163005A80EF0C1F86FE06836030874360308889F0810E4
:4047800070360308849F0810F06C020875360308F46C02086C36030880360308BC6C02086A360308853603088436030878360308C06C0208040001000846FFF7FDFA01463B
:4047C00020B929462046FFF79FFC01462846FFF74BFC294B1B7813F0110F04D0274B1B682946204698472A89234B1B7813F0010F11D0531E9BB2162B0DD912238DF8183052
:40480000ADF81620AB89ADF8143001238DF8193005A80EF063F8184A137803F0FE03137018E0FFF771FC15E0FFF76EFC12E0FFF76BFC0FE0FFF768FC0CE00846FFF7FEFAB4
:4048400029462046FFF760FC04E00D4A137843F001031370084B1B7813F0110F09D0064A137803F0FE031370044B1B682946204698470CB070BD00BF80360308C06C020838
:404880006B3603080020704730B108B5034A10600348FFF70BFC08BD02487047046D0208854808100100160070B539B900240AE015F8010BFCF7B4FB013402E016460D46EF
:4048C0000024B442F4DB204670BD00BF70B561B900240FE0FCF7B0FBC0B2287001340A2808D00D2806D0013502E016460D460024B442EFDB204670BD00F1080343604FF01D
:40490000FF328260C360036100230360704700BF00230361704700BF43684B609A688A609A68516099600861036801330360704730B40D68B5F1FF3F01D1026907E000F182
:40494000080200E01A4653681C68A542FAD253684B6099608A605160086103680133036030BC704703694268816891608268416851605A68904201D182685A600022026130
:404980001A68013A1A601868704700BF10B5044601F090FAA26BE36B9A4201D1012400E0002401F0A9FA204610BD00BF10B5044601F080FAA36B0BB9012400E0002401F022
:4049C0009BFA204610BD00BF70B504461646856B026CFAB166B9806802F04DF9A268236C1344A3606268934214D32368A36011E0C06802F040F9236C5B42E2681A44E260BC
:404A000021688A4202D262681344E360022E01D105B1013D0135A563002070BD026C72B110B50346C4681444C4604068844201D31868D8600846D96802F01DF910BD70470C
:404A400038B5054601F036FA95F8454064B20AE06B6A53B105F1240000F046FF08B100F0D1FF013C64B2002CF2DCFF2385F8453001F042FA01F01EFA95F8444064B20AE082
:404A80002B6953B105F1100000F02EFF08B100F0B9FF013C64B2002CF2DCFF2385F8443001F02AFA38BD00BF38B540B94FF0200383F31188BFF36F8FBFF34F8FFEE70446EB
:404AC0000D4601F0F7F92168E26B236C03FB021060600020A063A160013A02FB0313E360FF2384F8443084F845307DB92369ABB104F1100000F0F8FE80B14FF08052094BF6
:404B00001A60BFF34F8FBFF36F8F07E004F11000FFF7F2FE04F12400FFF7EEFE01F0ECF9012038BD04ED00E010B5029B0C4609B91B6000E01A60D8631C6401211846FFF7B5
:404B4000B3FF10BD40B94FF0200383F31188BFF36F8FBFF34F8FFEE7F0B583B0034611B101FB00F000E000201D4617460C46483001F0DEFA064638B100903B4600F1480284
:404B800021462846FFF7D0FF304603B0F0BD00BF40B94FF0200383F31188BFF36F8FBFF34F8FFEE7884208D24FF0200383F31188BFF36F8FBFF34F8FFEE710B50C460222C2
:404BC0000021FFF7BFFF034600B18463184610BDF0B585B0019240B94FF0200383F31188BFF36F8FBFF34F8FFEE7044619B9026C1AB9012202E0012200E0002242B94FF017
:404C0000200383F31188BFF36F8FBFF34F8FFEE7022B03D1E26B012A02D102E0012200E0002242B94FF0200383F31188BFF36F8FBFF34F8FFEE71D460E4600F0EBFE18B9D8
:404C4000019B1BB9012302E0012300E0002343B94FF0200383F31188BFF36F8FBFF34F8FFEE7002701F026F9A26BE36B9A4201D3022D21D12A4631462046FFF7A5FE636AEF
:404C80006BB104F1240000F02FFE88B14FF08052324B1A60BFF34F8FBFF36F8F08E038B14FF080522D4B1A60BFF34F8FBFF36F8F01F022F901204EE0019B1BB901F01CF93C
:404CC000002048E01FB902A800F052FE012701F013F900F067FC01F0EDF894F844305BB2B3F1FF3F02D1002384F8443094F845305BB2B3F1FF3F02D1002384F8453001F0BF
:404D0000FBF801A902A800F03DFEF0B92046FFF73DFEA0B1019904F1100000F0ADFD2046FFF78EFE00F0CCFC00289BD14FF080520A4B1A60BFF34F8FBFF36F8F92E7204604
:404D4000FFF77EFE00F0BCFC8CE72046FFF778FE00F0B6FC002005B0F0BD00BF04ED00E02DE9F84340B94FF0200383F31188BFF36F8FBFF34F8FFEE7044619B9006C18B9E7
:404D8000012002E0012000E0002040B94FF0200383F31188BFF36F8FBFF34F8FFEE7022B03D1E06B012802D102E0012000E0002040B94FF0200383F31188BFF36F8FBFF329
:404DC0004F8FFEE71F469046894601F085F9EFF311864FF0200383F31188BFF36F8FBFF34F8FA26BE36B9A4201D3022F1ED194F845506DB23A4649462046FFF7E5FDB5F1EF
:404E0000FF3F0DD1636A9BB104F1240000F06CFD80B1B8F1000F0FD00120C8F800000CE06B1C5BB284F84530012006E0002004E0012002E0012000E0012086F31188BDE8CA
:404E4000F88300BF40B94FF0200383F31188BFF36F8FBFF34F8FFEE770B50446036C43B14FF0200383F31188BFF36F8FBFF34F8FFEE703681BB943681BB9012302E0012319
:404E800000E0002343B94FF0200383F31188BFF36F8FBFF34F8FFEE70E4601F01DF9EFF311854FF0200383F31188BFF36F8FBFF34F8FA26BE36B9A4218D294F845305BB2AA
:404EC0000132A263B3F1FF3F0AD1636A83B104F1240000F009FD68B176B1012030600CE001335BB284F84530012006E0002004E0012002E0012000E0012085F3118870BD30
:404F0000F0B585B0019240B94FF0200383F31188BFF36F8FBFF34F8FFEE7044619B9036C1BB9012302E0012300E0002343B94FF0200383F31188BFF36F8FBFF34F8FFEE757
:404F40000E4600F067FD18B9019B1BB9012302E0012300E0002343B94FF0200383F31188BFF36F8FBFF34F8FFEE7002700F0A2FFA56BC5B131462046FFF750FD013DA563E5
:404F8000236963B104F1100000F0AEFC38B14FF08052304B1A60BFF34F8FBFF36F8F00F0ABFF012053E0019B1BB900F0A5FF00204DE01FB902A800F0DBFC012700F09CFF48
:404FC00000F0F0FA00F076FF94F844305BB2B3F1FF3F02D1002384F8443094F845305BB2B3F1FF3F02D1002384F8453000F084FF01A902A800F0C6FCF0B92046FFF7D6FC76
:40500000A0B1019904F1240000F036FC2046FFF717FD00F055FB0028A8D14FF080520D4B1A60BFF34F8FBFF36F8F9FE72046FFF707FD00F045FB99E72046FFF701FD00F0F6
:405040003FFB2046FFF7B2FC00288FD0002005B0F0BD00BF04ED00E030B585B0019140B94FF0200383F31188BFF36F8FBFF34F8FFEE70446036C43B14FF0200383F31188FA
:40508000BFF36F8FBFF34F8FFEE700F0C3FC18B9019B1BB9012302E0012300E0002343B94FF0200383F31188BFF36F8FBFF34F8FFEE7002500F0FEFEA36BA3B1013BA36367
:4050C000236963B104F1100000F00EFC38B14FF08052304B1A60BFF34F8FBFF36F8F00F00BFF012053E0019B1BB900F005FF00204DE01DB902A800F03BFC012500F0FCFE2C
:4051000000F050FA00F0D6FE94F844305BB2B3F1FF3F02D1002384F8443094F845305BB2B3F1FF3F02D1002384F8453000F0E4FE01A902A800F026FCF0B92046FFF736FC56
:40514000A0B1019904F1240000F096FB2046FFF777FC00F0B5FA0028ACD14FF080520D4B1A60BFF34F8FBFF36F8FA3E72046FFF767FC00F0A5FA9DE72046FFF761FC00F06F
:405180009FFA2046FFF712FC002893D0002005B030BD00BF04ED00E000230BE0074A52F8332032B9054A42F8331002EBC303586070470133092BF1D9704700BF94360308BD
:4051C00070B504460D46164600F074FE94F844305BB2B3F1FF3F02D1002384F8443094F845305BB2B3F1FF3F02D1002384F8453000F082FEA36B2BB93246294604F1240021
:4052000000F054FB2046FFF71BFC70BD094B9B6A1B680BB9012300E0002323B14FF0FF32044BDA627047034B9A6AD268D2685268DA627047086D020810B50446006B00F0E6
:40524000A7FF204600F0A4FF10BD00BF2DE9F0478246894615469846089F099E0A9C9200A521206B01F012FD236B05F18042013A03EB820525F00705002308E019F80310C9
:40528000E21882F8341019F8032012B101330F2BF4D9002384F84330062F00D90627E762201DFFF735FB04F11800FFF731FB2461C7F10703A3616462002306E003F11002BC
:4052C00004EB8202002151600133042BF6D90023A36584F85C3042465146284600F0BCFD206006B13460BDE8F08700BF70B5002407E004EB8402930010481844FFF7FCFA50
:405300000134062CF5D90E4C04F1BC063046FFF7F3FA04F1D0052846FFF7EEFA04F11400FFF7EAFA04F1E400FFF7E6FA2046FFF7E3FAA662C4F8F85070BD00BF386D020846
:40534000086D020838B5044600F0B4FD264BD3F8FC200132C3F8FC20D3F800314BB9224BC3F80041D3F8FC30012B10D1FFF7BEFF0DE01D4BD3F804314BB91B4BD3F8003199
:40538000DA6AE36A9A4202D8174BC3F80041164AD2F808310133C2F80831E36AD2F80C21934202D9104AC2F80C310F4D05F1300003EB83039A00211D1044FFF7ADFA00F0CA
:4053C0009BFDD5F804316BB1D5F80031DA6AE36A9A4207D24FF08052044B1A60BFF34F8FBFF36F8F38BD00BF086D020804ED00E038B517E000F05EFD0D4CD4F8F030DD68DC
:40540000281DFFF7AFFAD4F8FC30013BC4F8FC30D4F81031013BC4F8103100F06DFD2846FFF70AFF024BD3F81031002BE2D138BD086D020808B5FFF7DBFF064B1B6B012B24
:40544000F9D94FF08052044B1A60BFF34F8FBFF36F8FF0E7086D020804ED00E070B504460E46174BD3F81451D3F800010430FFF779FAB4F1FF3F07D136B11148D0F8001187
:405480000431FFF749FA70BD2C440D4BD3F800315C60A54208D90A4BD3F8F800D3F800110431FFF745FA70BD054DA86AD5F800110431FFF73DFAEB6A9C4200D2EC6270BD5A
:4054C000086D02082DE9F04385B006460F4615469846900000F02CFE60B18146602000F027FE044610B1C0F8309004E0484600F04FFE00E000248CB10023039302940D9B54
:4055000001930C9B009343462A4639463046FFF79DFE2046FFF716FF012001E04FF0FF3005B0BDE8F08300BF00B583B0194B019300230093802218491848FFF7C3FF0128D7
:4055400001D100F0CDFA012814D14FF0200383F31188BFF36F8FBFF34F8F114B4FF0FF32DA620122C3F804210022C3F8142100F043FD0BE0B0F1FF3F08D14FF0200383F31B
:405580001188BFF36F8FBFF34F8FFEE703B05DF804FB00BF246E0208C09F081035540810086D0208034AD2F818310133C2F81831704700BF086D0208014BD3F814017047C5
:4055C000086D02082DE9F0413C4BD3F81831002B65D13A4BD3F814410134C3F81441CCB99B6A1B6843B14FF0200383F31188BFF36F8FBFF34F8FFEE7304B9A6AD3F8F81016
:405600009962C3F8F820D3F820210132C3F82021FFF7FCFD294BDB6A9C4203D2002645E0012600E00026254B9B6A1B680BB9012300E0002323B14FF0FF32204BDA6235E0AB
:405640001E4B9B6ADB68DD686B689C4202D21B4AD3622BE005F104084046FFF783F9AB6A1BB105F11800FFF77DF9EB6A134AD2F80C21934202D9114AC2F80C310F4F07F1B4
:40568000300003EB83039A0041461044FFF744F9EA6AD7F80031DB6A9A42C1D2C3E7074AD2F824310133C2F824310026034BD3F8283103B101263046BDE8F081086D0208BB
:4056C000394BD3F8183143B94FF0200383F31188BFF36F8FBFF34F8FFEE770B500F0EAFB314BD3F81821013AC3F81821D3F81831002B52D12C4BD3F8FC303BBB00244FE0BE
:40570000294D2B6ADC6804F11800FFF72BF9261D3046FFF727F9E36AD5F80C21934201D9C5F80C31204D05F1300003EB83039A0031461044FFF7F0F8E26AD5F80031DB6A5B
:405740009A4204D30122C5F8282100E00024164B5B69002BD4D10CB1FFF758FD124BD3F8244164B1FFF72EFF18B101220E4BC3F82821013CF6D100220B4BC3F824210A4B6D
:40578000D3F828315BB14FF08052084B1A60BFF34F8FBFF36F8F012402E0002400E0002400F0AAFB204670BD086D020804ED00E0304BD3F8183123B101222E4BC3F82821F1
:4057C000704710B52B4B0022C3F82821D3F800311B6B1A68B2F1A53F0BD15A68B2F1A53F07D19A68B2F1A53F03D1DB68B3F1A53F07D0204BD3F80001D3F800113431FBF7A0
:4058000057FA1C4BD3F80C310AE043B94FF0200383F31188BFF36F8FBFF34F8FFEE7013B03EB83018A0013490A44126B002AECD008469900CC18A2000244546B64685463F2
:40584000303019448A0008320244944206D1606803EB83018A0007490A445063054903EB830082000A44526BD268C1F80021C1F80C3110BD086D020840B94FF0200383F32C
:405880001188BFF36F8FBFF34F8FFEE710B50C46054BD3F800111831FFF74AF801212046FFF7DCFD10BD00BF086D020838B540B94FF0200383F31188BFF36F8FBFF34F8F6D
:4058C000FEE70C461546074AD2F800111831FFF723F80DB14FF0FF3429462046FFF7BEFD38BD00BF086D020838B5C368DC6844B94FF0200383F31188BFF36F8FBFF34F8F9D
:40590000FEE704F118052846FFF72CF8154BD3F81831ABB9251D2846FFF724F8E36A114AD2F80C21934202D90E4AC2F80C3103EB83039A0029460C481044FEF7EDFF03E0C7
:4059400029460A48FEF7E8FFE26A064BD3F80031DB6A9A4204D90120024BC3F8280138BD002038BD086D0208386D02081C6D0208034BD3F820210260D3F8143143607047B0
:40598000086D0208F8B540B94FF0200383F31188BFF36F8FBFF34F8FFEE7054641B94FF0200383F31188BFF36F8FBFF34F8FFEE70C4600F07FFA124BD3F814016968421A2C
:4059C0002368B3F1FF3F14D02F680D4ED6F82061B74201D088420ED29A4206D29B1A23602846FFF7C5FF002406E000232360012402E0002400E0012400F07EFA2046F8BD2A
:405A0000086D02080122024BC3F82821704700BF086D0208064BD3F804312BB1044BD3F818311BB9022070470120704700207047086D0208064B1A681368B3FA83F35B093E
:405A4000036013B9D368186870470020704700BF346E020808B54160006191420AD8D21A83699A4211D2011D0A4B5868FEF760FF002008BD9A4201D2994208D2011D054BFA
:405A80001868FEF755FF002008BD012008BD012008BD00BF346E020870B500F00BFA0E4B9B68B3B90C4C04F10C063046FEF724FF04F120052846FEF71FFF2660656000222A
:405AC0000C210A20FFF73EF8A06010B10349FFF763FB00F011FA70BD346E0208C89F081000B583B0FFF7D8FF0D4B9B6853B10D4B019303230093002380220B490B48FFF754
:405B0000E1FC00E0002040B94FF0200383F31188BFF36F8FBFF34F8FFEE703B05DF804FB346E0208686E0208D09F0810C55D081040B94FF0200383F31188BFF36F8FBFF3D9
:405B40004F8FFEE730B585B015460446124A9068F0B11A46019102950394052913DCFFF759FF022807D10023089A01A90A488068FFF72EF80DE000231A4601A9064880680C
:405B8000FFF726F805E0002301A9FFF7E9F800E0002005B030BD00BF346E020870B582B029E0DB681E68DC68251D2846FEF7DAFE636A20469847E369012B1CD1A369334457
:405BC0009E4207D2636024612946104B1868FEF7AFFE10E0002100910B4632462046FFF7A7FF40B94FF0200383F31188BFF36F8FBFF34F8FFEE7054B1B681A68002AD0D19C
:405C0000024A51681160536002B070BD346E020838B50546FFF7D0FC0446074B9B6B984204D2FFF7BBFF01232B6001E000232B60014B9C63204638BD346E020870B582B0CD
:405C400005460E46134B1B68DB68DC68201DFEF789FEE369012B18D1A1692B46324629442046FFF7F7FE80B1002100910B462A462046FFF75DFF40B94FF0200383F311888C
:405C8000BFF36F8FBFF34F8FFEE7636A2046984702B070BD346E020870B582B006460C46FFF780FC01A8FFF7B3FF019B1BBB054644B9B04206D3FFF703FD29463046FFF714
:405CC000BDFF1AE02CB10E4B5B681C68B4FA84F464092246711B0A4B9868FFF771FAFFF7EFFC50B94FF08052064B1A60BFF34F8FBFF36F8F01E0FFF7E3FC02B070BD00BFDA
:405D0000346E020804ED00E030B587B04DE0039B002B4ADB059C636913B1201DFEF722FE02A8FFF775FF039B092B3ED8DFE803F00505053D273A05053D270499A5690B465F
:405D4000024629442046FFF785FE70B3636A20469847E369012B28D1A269002100910B46049802442046FFF7E3FEF0B94FF0200383F31188BFF36F8FBFF34F8FFEE70499E0
:405D8000A16141B94FF0200383F31188BFF36F8FBFF34F8FFEE70346024601442046FFF759FE02E0204600F0F3F9002203A9044B9868FFF7A5F80028A9D107B030BD00BFEF
:405DC000346E020800B583B001A8FFF733FE0199FFF762FFFFF798FFF6E700BF82B0002301930D4B1B68B3F1FF3F08D04FF0200383F31188BFF36F8FBFF34F8FFEE74FF0D2
:405E0000200383F31188BFF36F8FBFF34F8F019B002BFCD002B070475043020808480068006880F308884FF0000080F3148862B661B6BFF34F8FBFF36F8F00DF00BF0000D9
:405E400008ED00E0DFF80C00016841F4700101607047000088ED00E04FF0807340F8043C21F0010140F8081C054B40F80C3C40F8202C6FF0020340F8243C4438704700BF93
:405E8000DD5D0810000000000000000000000000074B19680868B0E8F04F80F30988BFF36F8F4FF0000080F311887047AFF30080086E02084FF0200383F31188BFF36F8FFD
:405EC000BFF34F8F0A4A136801331360012B0DD1084B1B6813F0FF0F08D04FF0200383F31188BFF36F8FBFF34F8FFEE7704700BF5043020804ED00E0094B1B6843B94FF047
:405F0000200383F31188BFF36F8FBFF34F8FFEE7013B034A13600BB983F31188704700BF50430208000000000000000000000000EFF30980BFF36F8F154B1A681EF0100FFE
:405F400008BF20ED108A20E9F04F10602DE909004FF0200080F31188BFF34F8FBFF36F8FFFF726FC4FF0000080F3118809BC19680868B0E8F04F1EF0100F08BFB0EC108A17
:405F800080F30988BFF36F8F704700BFAFF30080086E020808B54FF0200383F31188BFF36F8FBFF34F8FFFF70DFB18B14FF08052024B1A60002383F3118808BD04ED00E040
:405FC000084A0023136008490B60084B1B680849A1FB03139B09013B06490B6007231360704700BF10E000E018E000E00C430208D34D621014E000E010B582B0314B1A780B
:40600000D2B20192FF221A701B78DBB28DF803309DF803302C4A03F0200313700723536009E0294A5368013B53609DF803305B00DBB28DF803309DF8033013F0800FF0D189
:40604000214B5B68C3F10702032A08D04FF0200383F31188BFF36F8FBFF34F8FFEE7032A08D04FF0200383F31188BFF36F8FBFF34F8FFEE71B0203F4E063134A5360019BFB
:40608000DBB2104A1370114B1A6842F47F021A601A6842F07F421A60FFF792FF00240C4B1C60FFF7CFFE0B4A136843F040431360FFF7B4FEFFF77CFBFFF790FE204602B08D
:4060C00010BD00BF00E400E0706E020820ED00E05043020834EF00E0EFF305830F2B0FD9104A9B5CDBB2104A1278934208D24FF0200383F31188BFF36F8FBFF34F8FFEE748
:406100000A4B1B6803F4E063074A5268934208D94FF0200383F31188BFF36F8FBFF34F8FFEE77047F0E300E0706E02080CED00E038B5044610F0070F02D020F00704083455
:40614000FFF730FA104B1B682BB90F4A02F10C0323F0070313600D4BD3F85C351C444BF6F772944208D8A34208D2074A15681D44064BC3F85C4502E0002500E00025FFF741
:406180009FFA284638BD00BF786E02082029030840B14FF0200383F31188BFF36F8FBFF34F8FFEE7704700BF08B518B1094AD062002000E0084858B9084B1B782BB9054860
:4061C000FDF784FB0122054B1A7008B9FDF7A8FB08BD00BF5443020801001600802E030808B502490248FCF7BBFF08BDE43603080000664008B5114B1B785BB9104A1149DF
:406200001148FCF789FD11491148FDF741F801220A4B1A700E4BB3F90030002B08DB590903F01F03012202FA03F30A4A42F82130054A136843F00043136008BDA82E0308A3
:40624000E436030800A2081000006640E16108100C9A081000E100E008B5084B1B783BB9074A02210748FDF7F9F90122034B1A70044B04229A609A6108BD00BFA92E0308B5
:4062800040A208100000394008B502490248FCF74DFC08BD1C3703080000634010B5144B1B788BB9134C144A14492046FBF7EEFF134A14492046FCF7F7F813491348FCF711
:4062C000E7FF01220A4B1A70104BB3F90030002B08DB590903F01F03012202FA03F30C4A42F82130034A136843F00043136010BDAA2E0308000063401C370308A4A2081044
:4063000000127A00801A060089620810149A081000E100E008B5084B1B783BB9074A00210748FDF79BF90122034B1A70044B01229A609A6108BD00BFAB2E0308B8A208108B
:406340000000384008B5084B1B783BB9074A01210748FDF783F90122034B1A70044B02229A609A6108BD00BFAC2E03081CA308100000384081F0004102E000BF83F00043B8
:4063800030B54FEA41044FEA430594EA050F08BF90EA020F1FBF54EA000C55EA020C7FEA645C7FEA655C00F0E2804FEA5454D4EB5555B8BF6D420CDD2C4480EA020281EA59
:4063C000030382EA000083EA010180EA020281EA0303362D88BF30BD11F0004F4FEA01314FF4801C4CEA113102D0404261EB410113F0004F4FEA03334CEA133302D05242AF
:4064000063EB430394EA050F00F0A780A4F10104D5F1200E0DDB02FA0EFC22FA05F2801841F1000103FA0EF2801843FA05F359410EE0A5F120050EF1200E012A03FA0EFC59
:4064400028BF4CF0020C43FA05F3C01851EBE37101F0004507D54FF0000EDCF1000C7EEB00006EEB0101B1F5801F1BD3B1F5001F0CD349085FEA30004FEA3C0C04F1010436
:406480004FEA445212F5800F80F09A80BCF1004F08BF5FEA500C50F1000041EB045141EA050130BD5FEA4C0C404141EB010111F4801FA4F10104E9D191F0000F04BF0146C3
:4064C0000020B1FA81F308BF2033A3F10B03B3F120020CDA0C3208DD02F1140CC2F10C0201FA0CF021FA02F10CE002F11402D8BFC2F1200C01FA02F120FA0CFCDCBF41EAB8
:406500000C019040E41AA2BF01EB0451294330BD6FEA04041F3C1CDA0C340EDC04F11404C4F1200220FA04F001FA02F340EA030021FA04F345EA030130BDC4F10C04C4F1EE
:40654000200220FA02F001FA04F340EA0300294630BD21FA04F0294630BD94F0000F83F4801306BF81F480110134013D4EE77FEA645C18BF7FEA655C29D094EA050F08BF7B
:4065800090EA020F05D054EA000C04BF1946104630BD91EA030F1EBF0021002030BD5FEA545C05D14000494128BF41F0004130BD14F580043CBF01F5801130BD01F0004523
:4065C00045F0FE4141F470014FF0000030BD7FEA645C1ABF194610467FEA655C1CBF0B46024650EA013406BF52EA033591EA030F41F4002130BD00BF90F0000F04BF002156
:40660000704730B54FF4806404F132044FF000054FF0000150E700BF90F0000F04BF0021704730B54FF4806404F1320410F0004548BF40424FF000013EE700BF42004FEA24
:40664000E2014FEA31014FEA02701FBF12F07F4393F07F4F81F06051704792F0000F14BF93F07F4F704730B54FF4607401F0004521F0004120E700BF50EA010208BF7047E4
:4066800030B54FF000050AE050EA010208BF704730B511F0004502D5404261EB41014FF4806404F132045FEA915C3FF4DCAE4FF003025FEADC0C18BF03325FEADC0C18BF2C
:4066C000033202EBDC02C2F1200300FA03FC20FA02F001FA03FE40EA0E0021FA02F11444C1E600BF70B54FF0FF0C4CF4E06C1CEA11541DBF1CEA135594EA0C0F95EA0C0FDC
:4067000000F0DEF82C4481EA030621EA4C5123EA4C5350EA013518BF52EA033541F4801143F4801338D0A0FB02CE4FF00005E1FB02E506F00042E0FB03E54FF00006E1FB7A
:4067400003569CF0000F18BF4EF0010EA4F1FF04B6F5007F64F5407404D25FEA4E0E6D4146EB060642EAC62141EA55514FEAC52040EA5E504FEACE2EB4F1FD0C88BFBCF517
:40678000E06F1ED8BEF1004F08BF5FEA500E50F1000041EB045170BD06F0004646EA010140EA020081EA0301B4EB5C04C2BFD4EB0C0541EA045170BD41F480114FF0000E20
:4067C000013C00F3AB8014F1360FDEBF002001F0004170BDC4F10004203C35DA0C341BDC04F11404C4F1200500FA05F320FA04F001FA05F240EA020001F0004221F00041F3
:4068000010EBD37021FA04F642EB06015EEA430E08BF20EAD37070BDC4F10C04C4F1200500FA04F320FA05F001FA04F240EA020001F0004110EBD37041F100015EEA430EFF
:4068400008BF20EAD37070BDC4F1200500FA05F24EEA020E20FA04F301FA05F243EA020321FA04F001F0004121FA04F220EA020000EBD3705EEA430E08BF20EAD37070BD29
:4068800094F0000F0FD101F00046400041EB010111F4801F08BF013CF7D041EA060195F0000F18BF704703F00046520043EB030313F4801F08BF013DF7D043EA06037047DF
:4068C00094EA0C0F0CEA135518BF95EA0C0F0CD050EA410618BF52EA4306D1D181EA030101F000414FF0000070BD50EA410606BF1046194652EA430619D094EA0C0F02D1F3
:4069000050EA013613D195EA0C0F05D152EA03361CBF104619460AD181EA030101F0004141F0FE4141F470014FF0000070BD41F0FE4141F4780170BD70B54FF0FF0C4CF495
:40694000E06C1CEA11541DBF1CEA135594EA0C0F95EA0C0F00F0A7F8A4EB050481EA030E52EA03354FEA013100F088804FEA03334FF0805545EA131343EA12634FEA022292
:4069800045EA111545EA10654FEA00260EF000419D4208BF964244F1FD0404F5407402D25B084FEA3202B61A65EB03055B084FEA32024FF480104FF4002CB6EB020E75EBF0
:4069C000030E22BFB61A754640EA0C005B084FEA3202B6EB020E75EB030E22BFB61A754640EA5C005B084FEA3202B6EB020E75EB030E22BFB61A754640EA9C005B084FEA40
:406A00003202B6EB020E75EB030E22BFB61A754640EADC0055EA060E18D04FEA051545EA16754FEA06164FEAC30343EA52734FEAC2025FEA1C1CC0D111F4801F0BD141EA46
:406A400000014FF000004FF0004CB6E711F4801F04BF01430020B4F1FD0C88BFBCF5E06F3FF6AFAEB5EB030C04BFB6EB020C5FEA500C50F1000041EB045170BD0EF0004E5B
:406A80004EEA113114EB5C04C2BFD4EB0C0541EA045170BD41F480114FF0000E013C90E645EA060E8DE60CEA135594EA0C0F08BF95EA0C0F3FF43BAF94EA0C0F0AD150EA60
:406AC00001347FF434AF95EA0C0F7FF425AF104619462CE795EA0C0F06D152EA03353FF4FDAE1046194622E750EA410618BF52EA43067FF4C5AE50EA41047FF40DAF52EA34
:406B000043057FF4EBAE12E74FF0FF3C06E000BF4FF0010C02E000BF4FF0010C4DF804CD4FEA410C7FEA6C5C4FEA430C18BF7FEA6C5C1BD001B050EA410C0CBF52EA430CDA
:406B400091EA030F02BF90EA020F0020704710F1000F91EA030F58BF994208BF90422CBFD8176FEAE37040F0010070474FEA410C7FEA6C5C02D150EA013C07D14FEA430C6E
:406B80007FEA6C5CD6D152EA033CD3D05DF8040B704700BF8446104662468C461946634600E000BF01B5FFF7B7FF002848BF10F1000F01BD4DF808EDFFF7F4FF0CBF012056
:406BC00000205DF808FB00BF4DF808EDFFF7EAFF34BF012000205DF808FB00BF4DF808EDFFF7E0FF94BF012000205DF808FB00BF4DF808EDFFF7CEFF94BF012000205DF85A
:406C000008FB00BF4DF808EDFFF7C4FF34BF012000205DF808FB00BF4A0011D212F5001211D20DD56FF47873B3EB62520ED44FEAC12343F0004343EA505323FA02F070479E
:406C40004FF00000704750EA013002D14FF0FF3070474FF00000704710B501390244904207D010F8013B11F8014FA342F7D0181B10BD002010BD10B5431E0A44914204D086
:406C800011F8014B03F8014FF8E710BD02440346934202D003F8011BFAE770472DE9F04788B0002B149F1299109EDDF84CA01D4627F02007BBBF03F100431D4600232D23FE
:406CC0001446B8BF1446462F0B7003D0452F03D1013601E0032300E0022307AA049206AA03928DE8480422462B4600F0DDFE472F804602D1119BDB0728D5462F08EB060919
:406D000011D198F80030302B0AD10022002320462946FFF74FFF18B9C6F10106CAF80060DAF8003099440022002320462946FFF741FF08B9302202E0CDF81C9006E0079B4F
:406D4000994503D9591C07911A70F8E7079B159AC8EB03034046136008B0BDE8F08773B503460029B8BF494203F8022BB4BF2D222B220929427019DD0DF1070216460A25CD
:406D800091FBF5F405FB14113031092C02F8011D2146F5DC3031541E02F8011CB4421A460AD214F8012B03F8012BF7E730241A46214402F8024B5970101A02B070BD0000C8
:406DC0002DE9F04F91B00C46DDF8688016461F46054601F081FD03680893184600F0F4FC00230E93D8F800300990073323F0070303F1080294F818A0D4F800B0C8F80020DD
:406E0000D3E90023C4E91223D4E9128929F000430B93CDF828804FF0FF32A74BDDE90A0102F0AAFBA0B94FF0FF32A34BDDE90A01FFF7D4FE60B90022002340464946FFF74F
:406E4000C3FE10B12D2384F843309C4B9C4A0AE042464B464046494602F08EFB002800F09281984B984ABAF1470F8CBF90469846032323612BF0040323604FF000093DE04D
:406E8000BAF1670F00F08A81BAF1470F00F08681236000210DF133020193636805900292009342464B460691CDF810A0CDF80CE02846FFF7F3FE0AF0DF03472B804600F09D
:406EC0008481BAF1650F0D9900F28D810139524604F150000D91FFF742FF0E9A8318012A8146236100F37C812268D10700F178819DF8333013B12D2384F8433000973346DC
:406F00000FAA2146284600F09FF9013002D14FF0FF3096E123685A0501D4236965E0BAF1650F40F2D58000220023D4E91201FFF741FE78B30123654A31462846B8470130BF
:406F4000E5D00E9B0D9A9A420BDB2368D80708D423689B0740F111814FF0000804F1190906E1099B089A31462846B8470130CED04FF0000804F11A090E9B013B9845E7DAF4
:406F800001234A4631462846B8470130BFD008F10108F1E70D9B002B29DC01234B4A31462846B8470130B2D00D9B23B90E9B13B92368D907CCD5099B089A31462846B84748
:406FC0000130A4D04FF0000904F11A0A0D9B5B42994509DA0123524631462846B847013095D009F10109F1E70E9B4246A7E00E9AA36D9A42A8BF1A46002A914606DC4FF03E
:40700000000A29EAE97904F11A0B11E01346314642462846B8470130F1D178E701235A4631462846B84701303FF471AF0AF1010AA36DC9EB03029245F0DB08EB03090D9A6C
:407040000E9B9A420FDB2368DA070CD40E9B0D9A9844C9EB08089B1A9845A8BF9846B8F1000F08DC0FE0099B089A31462846B8470130EBD14BE743464A4631462846B847BD
:4070800001303FF444AF4FF0000928EAE87804F11A0A09E00123524631462846B84701303FF435AF09F101090D9A0E9B9B1AC8EB03039945EEDB4BE7FFFFEF7F64A80810AA
:4070C00068A808106CA8081070A8081074A808100E9A012A01DCDB0738D50123424631462846B84701303FF412AF099B089A31462846B84701303FF40AAF00220023D4E93B
:407100001201FFF757FD20B14FF0000804F11A0A0EE00E9B08F10102013B19E00123524631462846B84701303FF4F1AE08F101080E9B013B9845F1DB4B4604F15002314677
:407140002846B84701307FF403AFE0E60123424631462846B8470130EED1D8E601234A4631462846B84701303FF4D1AE08F10108E3680F9A9B1A9845F0DBE0680F9B9842AE
:40718000B8BF18465DE06268531C0EA84BF480630DF1340E7FF474AE062201E012B90122626075E6002106910DF133018DE80C00236005904246CDF810A0CDF80CE00291FF
:4071C0004B462846FFF76AFD80460D9BD81C02DB626893421DDDAAF1020A5FFA8AFA70E60133236184E6BAF1660F14D10029636807DD216113B92268D2071DD501330B445C
:4072000019E013B92268D00701D5023313E0012311E04FF0670A0D9B0E9A934205DB22682361D10708D5013305E0002BD4BFC3F102030123134423610D9BA3654FF0000916
