:020000041008E2
:40000000007804085F0908100D000000C5090810C5090810C5090810C509081000000000000000000000000000000000016D0810C109081000000000A16D0810056E0810FE
:40004000C1090810C1090810C1090810C1090810C1090810C1090810C1090810C1090810C1090810C1090810C1090810C1090810C1090810C1090810C1090810C109081060
:40008000C1090810C1090810C1090810C1090810C1090810C1090810C1090810C1090810C1090810C1090810C1090810C1090810C1090810C1090810C1090810C109081020
:4000C000C1090810C1090810C1090810C1090810C1090810C1090810C1090810C1090810C1090810C1090810C1090810C1090810C1090810C1090810C1090810C1090810E0
:40010000C1090810C1090810C1090810C1090810C1090810C1090810C1090810C1090810C1090810C1090810C1090810C1090810C1090810C1090810C1090810C10908109F
:40014000C1090810C1090810C1090810C1090810C1090810C1090810C1090810C1090810C1090810C1090810C1090810C1090810C1090810C1090810C1090810C10908105F
:40018000C1090810C1090810C1090810C1090810C1090810C1090810C1090810C1090810C1090810C1090810C1090810C1090810C1090810C1090810C1090810C10908101F
:4001C000C1090810C1090810C1090810C1090810C1090810C1090810C1090810C1090810C1090810C1090810C1090810C1090810C1090810C1090810C1090810C1090810DF
:40020000C1090810C1090810C1090810C1090810C1090810C1090810C1090810C1090810C1090810C1090810C1090810C1090810C1090810C1090810C1090810C10908109E
:40024000C1090810C1090810C1090810C1090810C1090810C1090810C1090810C1090810C1090810C1090810C1090810C1090810C1090810C1090810C1090810C10908105E
:40028000C1090810C1090810C109081010B5054C237833B9044B13B10448AFF300800123237010BD506902080000000014B80810084B10B51BB108490848AFF30080084858
:4002C000036803B910BD074B002BFBD0BDE81040184700BF000000005469020814B80810384702080000000010B5054C042204F12801044800F042FE012384F8253010BDE3
:400300008C4202080000634010B5044C0422A118034800F033FE0123637010BD8C42020800006240000000002DE9F04F2DED088B8DB0044600EBC006AD4B03EB8606D6F82A
:400340001080404607F060F8A3A3D3E9002307F0FBF9A84D05EBC415C5E90001404607F053F89DA3D3E9002307F0EEF982468B46C5E902ABB06907F047F897A3D3E900237A
:4003800007F0E2F9C5E90401306A07F03DF892A3D3E9002307F0D8F980468946C5E90689002373702B8C43B9C5E90CABC5E90AABC5E91089C5E90E893DE08E4B03EBC4137C
:4003C000D3E90C235046594607F024FB28B1894B03EBC413C3E90CAB0EE0864B03EBC413D3E90A235046594607F0F6FA20B1814B03EBC413C3E90AAB7E4B03EBC413D3E95C
:4004000010234046494607F005FB28B1794B03EBC413C3E910890EE0764B03EBC413D3E90E234046494607F0D7FA20B1714B03EBC413C3E90E896F4B03EBC41393F82230A7
:4004400033B96C4B03EBC4131A8C01321A8405E0684A02EBC412013B82F82230654B03EBC4131B8C632B40F2B1802146624807F08FFF604B03EBC414D4E90623CDE9002368
:40048000D4E902235D4807F083FF94ED0C8BD4E90AAB52465B4651EC180B06F077FE06460F46C4E9186752465B4651EC180B06F06FFE0022524B07F01DF841EC190BC4E91C
:4004C0001601D4E9108994ED0EBB53EC1B2B4046494606F05BFE41EC1A0BC4E91C0153EC1B2B4046494606F053FE0022444B07F001F880468946C4E91A8953EC192B3046E0
:40050000394607F021F9CDE9060142464B4651EC1A0B07F019F902460B46DDE9060107F013F9C4E91E01374D8DED049B8DED028BCDE900AB32463B46284607F029FFD4E96D
:400540001A23CDE90423D4E91023CDE90223D4E90E23CDE90023D4E91C23284607F018FF1FA3D3E90023D4E91E0106F0C3FF1EA3D3E9002306F00CFE02460B46224807F088
:4005800007FF17A3D3E90023D4E91E0106F0B2FF15A3D3E9002306F0FBFD07F045FA144B03F86C0F00260A960B9609930125ADF828501223ADF82C3009A804F0A9FB09A912
:4005C000124804F051FC2684284600E000200DB0BDEC088BBDE8F08F000000000088C3403333333333330FC0CDCCCCCCCC2C59408C42020870690208F0A50810F8A50810C0
:400600000000E03F00A6081010A60810B836030810B582B04FF40073019340F201230093044668BB4A4BB3F90030002B0DDB5A0903F01F03012101FA03F32032454941F857
:400640002230BFF34F8FBFF36F8F03236A462321414800F0A7FC414BB3F90030002B08DB590903F01F03012202FA03F3394A42F82130032301AA2321394800F093FC61E04C
:4006800001282DD1354BB3F90030002B0DDB5A0903F01F03012101FA03F320322D4941F82230BFF34F8FBFF36F8F03236A4623212B4800F077FC264BB3F90030002B08DB3B
:4006C000590903F01F03012202FA03F3214A42F82130032301AA23211F4800F063FC31E01E4BB3F90030002B0DDB5A0903F01F03012101FA03F32032164941F82230BFF3CB
:400700004F8FBFF36F8F03236A462321144800F049FC0F4BB3F90030002B0DDB5A0903F01F03012101FA03F320320A4941F82230BFF34F8FBFF36F8F03236A4623210648D4
:4007400000F030FC074B83F8804102B010BD00BF08A8081000E100E00000634010A80810000062407069020810B5064C04EBC01480220021204607F091F9052384F8223096
:4007800010BD00BF70690208D0B582B0044600230193314807F06EFE0A21304807F0F8FD0A212F4807F0F4FD0CB92E4900E02E492E4807F0EDFD0A212D4807F0E9FD24A7EB
:4007C000D7E9006732463B462A4807F0E1FD0A21294807F0DDFD32463B46284807F0D8FD274807F047FE274807F044FE2046FFF7BBFF84B9244C032301AA0021204600F092
:40080000D1FB2D222149204600F004FC2049214802F04CFD0FE0204C032301AA0021204600F0C0FB2D221949204600F0F3FB1B491B4802F03BFD1B4B93F88101FFF7E8FE3D
:400840000222194B5A6002B0D0BD00BFAFF30080343333333333134028A608103CA6081058A6081018A6081020A6081074A608108CA60810A8A60810C4A60810E0A60810E4
:4008800000A708102CA708100000624088A408100903081010A8081000006340E902081008A80810706902088003324030B589B0264B93F88031022B1BD1254C0225A560ED
:4008C000002002F0FBFE6560204BD3F88431002BEED00020FFF748FF0020FFF799FE1D4803F076FB0022194BC3F8842100F052F9DEE70022154BC3F88421684603F068FBB5
:4009000014480268009B991A019B42689B1A00D53C33C3EB03139A000A44092A11D80E4B5B7813F0FF0F02D00020FFF7FDFC0A4B93F8253013F0FF0FBAD00120FFF7F4FCA7
:40094000B6E70220FFF764FEB2E700BF7069020880033240443603088C4202087047FFF7FDFF72B6104C114DAC4209DA21686268A368043BA2BFC858D050FAE70C34F3E73E
:400980000B490C4A00209142BCBF41F8040BFAE709480A490860BFF34F8F00F095FA00F06FFA00F04BF9FEE7D4960910EC96091050690208BC3703080040020808ED00E06B
:4009C000FEE7FEE700B504207146084202D0EFF3098001E0EFF30880043002F0D5FCFEE738B544F20803984207D00C4645F20C03984207D0B0F5805F18D10021084604F0F7
:400A000025F838BD0A4D284604F0A6F92B78687843EA002012F088FEE06812F085FE2389142B03D123681A78024B1A7038BD00BFB8360308F86A020800B583B002A90023A5
:400A400041F8043D084B186805F03AF9019B3BB14FF08052054B1A60BFF34F8FBFF36F8F03B05DF804FB00BF6436030804ED00E000B585B000214FF0FF3004F0C7FF1E4B86
:400A800018601E4806F0C8FA01E00AF0F7FF1C4B1B78022BF9D11B4803F016FF4FF0FF31154B186805F016FA0AF0E8FF164B1B78002BF3D0154B5B78154AD35C13F0FF0F8A
:400AC000ECD1002302930393124B01930123ADF808301223ADF80C3001A90C4804F0C4F9094B586010B90AF0C9FFD7E701460A4807F04EFCD2E700BF64360308E1090810E6
:400B0000BC360308390A0810F86A0208B8360308D4360308F842020854A7081008B50021084603F071FD08BD08B54FF4A671024802F01AFC08BD00BF8CA7081038B54FF4D2
:400B4000FA74064803F040FA0546013C052002F0E7FB0DB1002CF4D1284638BD50B1081038B54FF4FA740121064803F0A9FA0546013C052002F0D4FB0DB1002CF3D12846B2
:400B800038BD00BFFC4202080122014B1A607047F46A020808B50C4A01231371137391680A3103F18833A3FB01035B09C3EB0313A1EB83039360FFF7D3FF20B140F217213B
:400BC000024802F0D1FB08BDFC4202088CA7081010B5FFF7B3FF20B1D521134802F0C4FB0AE0FFF7BDFF20B1DC210F4802F0BCFB02E0022003F0F6FCFFF7CCFF0B4C0C4995
:400C0000204602F053FBB4F90030002B08DB590903F01F03012202FA03F3064A42F82130054803F0D5F910BD8CA7081030A808101D0B081000E100E04436030800B583B038
:400C400006F042FA00F01EFA06F060FA06F00AFA1B4C2068002302221946406807F012FC2068002302221946806807F00BFC0020FFF78AFD62B60822124B9A6000240194AB
:400C80000123009323464FF4C8720F490F4805F057FB01940223009323464FF480520C490C4805F04DFBFFF793FF05F07BFB0A4807F0E0FB4FF48D71084802F055FBFEE721
:400CC000F44602080003324098A70810AD080810A4A70810710A0810B0A708108CA7081008B5012000F0D2FD08BD00BF704700BF5C4AD2F8803303F00F0303F1D00152F899
:400D0000212002F00702032A04D0042A05D092B9554914E0554A116811E003F1C002514951F8222002F01F02112A06D0132A04D04FF4FA4103E04E4901E04FF400418BBBDA
:400D4000484BD3F8902502F00100D3F88825C2F30172D3F8883513F0405F07D0414BD3F88835C3F30173012B02D102E0012300E0002303B108B9032A46D13A48D0F88025DE
:400D8000C2F31103D0F88425C2F30C02D0F88005C0F300600130B1FBF2F202FB03F2B2FBF0F131E0012B2FD12E4BD3F8402602F00100D3F80026C2F30172D3F8003613F09E
:400DC000405F07D0274BD3F80036C3F30173012B02D102E0012300E0002303B108B9032A12D12048D0F8002602F07F02D0F80036C3F30423D0F80006C0F3044002FB01F2FA
:400E0000B2FBF3F2B2FBF0F1164BD3F88033C3F3011321FA03F215494A601648D0F89030C3F3072301330069000E0130B2FBF0F08860B2FBF3F3CB600B6103F5742202F20E
:400E40003F220D48A0FB0202C2F387420A7503F2E7330A4AA2FB03239B098B61DB03CB61704700BF0000264000127A002C43020800366E010000214083DE1B43D34D621028
:400E800008B50D4802F0A2FCFFF730FFFFF730FF00221146042000F0ABFA084800F03EFB074B1B6893F8513013B1064800F0A6FB00F0E8F908BD00BFCCAB0810006B0208BE
:400EC000B4360308D4A7081008B502F0BAFA074AD2F8883043F47003C2F88830BFF34F8FBFF36F8F02F0B1FA08BD00BF00ED00E02DE9F04182B006460C4690461D461C4B33
:400F0000984201D11B4F00E01B4F009700231A465821304601F0BEFB3B4600222146304601F026FD0097002301225821304601F029FC002409E02A1B013A0097002342445B
:400F40001946304601F0BAFC01346B1E9C42F2DB0097002342460121304601F0AFFC3A460021304601F078FC002002B0BDE8F08100006240683603086C370308F8B50746BF
:400F80000D461646002409E005EBC4020323043215F834103846FFF7ABFF0134B442F3D30020F8BD2DE9F04182B006460C4690461D46154B984201D1144F00E0144F009795
:400FC00000231A465821304601F064FB3B4600222146304601F0CCFC002409E0291B01393B46002218F80110304601F0C1FC0134AC42F3DB3A460021304601F02DFC002041
:4010000002B0BDE8F08100BF00006240683603086C370308F8B507460D461646002409E005EBC4020323043215F834103846FFF7B9FF0134B442F3D30020F8BD10B5044616
:401040002146034800F0B0FC0028F9D010BD00BF00006640054BD3F80833C3F30803002BF8D0024BD3F84003704700BF0000664008B50249024801F067FD08BD6836030869
:401080000000624010B5144B1B788BB9134C144A1449204601F008F9134A1449204601F011FA1349134802F001F901220A4B1A70104BB3F90030002B08DB590903F01F03A4
:4010C000012202FA03F30C4A42F82130034A136843F00043136010BD806C0208000062406836030838A8081000127A00801A06007110081028A8081000E100E01F4B984291
:401100002DD00CD840282ED003D8E8B1102828D02FE0802829D0B0F5807F28D029E0184B984228D006D8B0F1204F0DD0154B984212D01EE0144B98420AD00133984209D05B
:40114000023B984215D101E0002070470F4870470F4870470F4870474FF4A0007047074870470D4870470D4870470D487047034870470C4870474FF4A400704706005200C9
:40118000010000F0090000A0040000F0010052000200520003005200010050000200500005005200FF00520038B5124B1B6893F83130012B04D840F2C3110F4802F0D4F87E
:4011C0000C4B1D682A6AB5F8B03013442C46D5F8B420D358002B0BDB084B1868FFF78EFF6B6801229A6063689B68002BFBD138BD034838BDB43603084CA80810846C020811
:40120000020050001A4B186128B102230370FF23437000234380174B1B6893F850202AB300B583B0B3F93830ADF80030002301931149684602F03AF8BDF90030002B08DBED
:40124000590903F01F03012202FA03F30B4A42F82130084B1B6893F8513023B102220849012000F077FA03B05DF804FB704700BF846C0208B4360308A947020800E100E02E
:401280006148020808B50248FFF7BCFF08BD00BF986C020838B50B4B1B68D3F8B4301B58002B0DDA0D4604460B0C1B0423B140F2D521054802F058F8A9B26160002038BDA8
:4012C000024838BDB43603088CA8081001008A0038B50368002B01DA002300E0094B73B90D460446C2600B0C1B0423B140F2BB21054802F039F8A9B2A160002038BD014801
:4013000038BD00BF01008A008CA8081038B504460D4619B99921084802F026F8074B1B68D3F8B4301B59002B03DAE3682B60002038BD034838BD00BFCCA80810B436030841
:4013400001008A00254B1B6893F8313083423AD900293AD00B6813F01F0F38D170B50D4604461E4B1B6893F83130984204D340F2C3111B4801F0F8FF184B1B68186AB3F89C
:40138000B03004FB0304174E34602A68D2080021686806F083FB00212046FFF77BFF346825B940F293310E4801F0DEFF2A4600212046FFF78DFF60B900210A4B1868FFF774
:4013C00069FF40B970BD084870470748704706487047064870BD054870BD00BFB43603088CA808109C6C020803018A0001018A0010B504461346B2B9A9B9124B1B6893F88C
:401400003130984204D340F2C3110F4801F0ACFF0C4B1B681A6AB3F8B03004FB03240B4B1C60002010BD43B149B1084A51609360111D2046FFF786FF10BD054810BD0448AD
:4014400010BD00BFB43603088CA808109C6C020803018A002DE9F0411B4B1B68DC68236883422CD90D464609A0EB4610012303FA00F819B901F0E5FF074600E00027124B42
:4014800018680368002B01DA002300E00F4B83B9626852F8263018EA030F05D023EA080342F82630002400E0094C0021FFF7F2FE00E0084C25B9384601F0C7FF00E0064CCE
:4014C0002046BDE8F08100BF9C6C020801008A00020188000301880004018A000B4B1B68DB681A6882420CD94109A0EB4110012202FA00F05B6853F82130184203D004481A
:401500007047044870470448704700BF9C6C02080101880004018A0000018800024B1B680BB9014B18607047A86C02082DE9F8430446884691461D46089F2C4B1B681BB936
:40154000B5212B4801F010FF284B1B682C2000FB04F01C18EEB21E50C5F3072363602D0CA560244B1B6893F831309E4204D340F2C311214801F0F8FE1E4B1B68196AB3F8C7
:40158000B02006FB02162661666893F832309E4204D340F2DF11184801F0E6FE154B1B681D6A803605EB46156561A668330C1B0423B14FF4FF71104801F0D6FE330C1B0453
:4015C00023B140F2FF110C4801F0CEFEB3B243EA0646AE60C4F81C90C4F820800023A36117B1B7F90030A381BDE8F883A86C02080CA90810B43603088CA80810F0B58FB0F1
:40160000044618B95221274801F0AEFEA369072B03D95621234801F0A7FEE36A1BB95821204801F0A1FE236B1BB959211D4801F09BFE07AD04F114060FCE0FC537682F607F
:4016400002AD26460FCE0FC533682B60164B1B68B3F93620079B1344ADF83030089B0D93A26AE16A0CAD00953B460A98FFF75EFF00210091069B0A460598FFF757FF216B1E
:40168000284601F013FEBDF93030002B08DB590903F01F03012202FA03F3044A42F821300FB0F0BD0CA90810B436030800E100E0F8B506460F461D4614461AB9FD211F48DF
:4016C00001F052FE1E4B1B681BB9FE211B4801F04BFE1B4B1B682C2101FB063001FB07314B68012202FA03F31B04466802FA06F60269EAB18F69EFB91268002A01DA0022BD
:4017000000E0104AC2B92288134323600369DC6001238B614D620469330C1B0423B140F2BB21094801F020FEB2B2A2600020F8BD0648F8BD0648F8BD0548F8BD0CA90810ED
:40174000A86C020801008A008CA8081004028A0007028A00F8B505460F4616460E4B1B6823B94FF4AF710D4801F0FEFD0A4B1B682C2404FB0534236A23B94FF4B1710748CF
:4017800001F0F2FDE369B34204D9236A43F826700020F8BD0248F8BDA86C02080CA908100A028A0038B504460D46074B1B6823B94FF4C871054801F0D7FD034B1B682C2290
:4017C00002FB0434A56238BDA86C02080CA9081070B582B000230193044620B940F2D111284801F0C1FD236923B94FF4E971254801F0BAFD636923B940F2D311214801F037
:40180000B3FD236A23B94FF4EA711E4801F0ACFD6369DD682A0C20D012041A601B682069194B1B68D3F8B430C358002B15DA01A9FFF76CFD60B9019803681E0CDBB2E2692B
:40184000934206D2226A52F8233013B1984700E0002631462069FFF71DFDADB275B16369ADB21D601B68636A1BB198470023636202E0A36A03B198470023A36163691B68D1
:4018800002B070BD0CA90810B436030810B50446074B1B6823B940F2B111064801F064FD034B1B682C2000FB0430FFF791FF10BDA86C02080CA9081010B50446104B1B68BC
:4018C00023B940F22B210F4801F04EFD0C4B1B682C2202FB0434B4F90C30002B0DDB5A0903F01F03012101FA03F32032064941F82230BFF34F8FBFF36F8F002010BD00BFFF
:40190000A86C02080CA9081000E100E010B504460D4B1B6823B940F24B210C4801F024FD094B1B682C2202FB0434B4F90C30002B08DB590903F01F03012202FA03F3044A06
:4019400042F82130002010BDA86C02080CA9081000E100E010B4D0F8003303F00F03072B06D900230DE0D0F84043CC54013300E000239342F7D306E0D0F8404321F8134080
:4019800001339342F8D35DF8044B704710B51446D0F80833C3F308039A4200D31C462246FFF7D8FF204610BD036813F4006F01D0802200E04022D0F80832C3F3080393426E
:4019C00003D0C0F84012012070470020704700BF10B4D0F8003203F00F03072B06D900230DE0CC5CC0F84042013300E000239342F7D306E031F81340C0F8404201339342DB
:401A0000F8D35DF8044B704710B51446036813F4006F01D0802200E04022D0F80832C3F30803D31AA34200D81C462246FFF7D0FF204610BD02E0C0F84012013A002AFAD180
:401A4000704700BF10B51446036813F4006F01D0802200E04022D0F80832C3F30803D31AA34200D81C462246FFF7E4FF204610BD10B54A6841F201039A4231D1D0F8083369
:401A8000C3F30803B3B10B6A43F040030B620B7873B1D0F8043343F48033C0F80433D0F8043323F48033C0F80433D0F8043301E0D0F840330B6A43F020030B620B6A23F097
:401AC00010030B62036E23F4204303660023C0F8C83F0123C0F8C03FD0F8C03F202221E0D0F80832C3F30802D0F80832C3F3C03313440A6BD21A4A630A6A12F0080F05D116
:401B0000CA6A1A44CA628A6AD31A8B620B6A43F004030B620B6A23F001030B620023C0F8883F1022D0F84C4F40F201131C420DD0036823F00043036000238366C366036888
:401B400043F000430360036842F040024FF080534B604B6C0BB11046984710BDD0F80C3F13F0020F1DD00222C0F8002FD0F8002FD0F8002F12F0040F02D04FF4001001E053
:401B80004FF480108A6802438A604A68B2F5B81F07D00A7B12B14FF4C01201E04FF4B0124A6013F4807F03D08A6842F400028A6013F0010F03D08A6842F480028A6040F2A4
:401BC0001112134202D04FF4C0134B60704700BF0023C0F8C83FC0F8883F836E23B140F21713C0F8083F704740F21313C0F8083F182383664FF4B8134B60704738B5D0F88C
:401C00000C4F036E23F4807303660023C0F8C83FC0F8883FC0F8083F40F21713C0F8003FD0F8003F8B6823F480338B604B7B13B18B69CB610BE08D69D0F80822C2F30802C7
:401C4000D0F80832C3F3C0331344EB1ACB6140F201131C421BD0036E9B0F032B05D114F4827F14BF0123002300E001235BB1036823F00043036000238366C366036843F059
:401C80000043036003684FF080534B601BE00B7893B1D0F8043343F48033C0F80433D0F8043323F48033C0F80433D0F804330123C0F8C03FD0F8C03F0B7B0BB10B4B01E0EA
:401CC0004FF080534B604A6C72B14B7B13B14FF4802001E04FF400308B6813F0F87301D04FF400231843904738BD00BF000010100346002940DB11F0C00F06D000218166B4
:401D00004FF0805050602F4844E011F4807F36D111F0010F0ED050682B49884232D1196E11F0804F0CBF012100214FF08050506026482FE011F0020F06D0506822498842E0
:401D400023D10021224825E011F0100F05D04FF080515160002108461CE050681A49884216D1517B11B14FF4881101E04FF4A0115160002108460DE0012116480AE001211A
:401D8000154807E00121114804E00021134801E00021084679B1196821F00041196000219966D966196841F0004119601B684FF080535360704740F21712C3F8002FD3F864
:401DC000003F70470820AA00000013100620AA000420AA000320AA000720AA000520AA00036853B110B50446012001F0B1FA2368013B23601BB1002010BD002070474FF099
:401E0000004010BD70B505460C4691F8243013F0FF0F0ED1CB6A63B94B6C0BB108209847E36AB3FA83F35B0984F824300123C5F8883F94F8243013F0FF0F16D063783BB151
:401E40002B6813F4006F01D0802202E0402200E00122FF212846FFF7F5FD236B18442063236A43F00803236270BDE26A012A11D963780BB1013A00E00122A16A2846FFF79A
:401E8000C3FD236B03442363E36A1B1AE362A36A1844A062D5F80832C3F30803802B23D0E36A012B20D101F0CCFAA36A1B78C5F840324026C5F8806FD5F8803F01F0C5FA31
:401EC000236B013323630023E362A36A0133A362C5F8886F63783BB1236A43F002032362636C0BB10420984770BD00BF38B54B68B3F5A81F03D14FF4C0134B6038BD4B6861
:401F0000B3F5A01F4DD10C4605464A69012A11D94B780BB1013A00E0012221692846FFF773FDA3690344A36163691B1A6361236903442361D5F80832C3F30803802B14D0D2
:401F40006369012B11D101F07CFA23691B78C5F840324023C5F8803FD5F8803F01F075FAA3690133A361002363616369CBB9237B33B14023C5F8883F4FF4A813636005E07D
:401F80000023C5F8883F4FF4B0136360637843B1A36843F40033A360636C13B14FF48030984738BD70B504460D468A6C82B3036813F4803F06D0D0F84C3F13F0400F03D0A4
:401FC000022002E0002000E00020236E13F4006F06D1D4F84C3F13F0800300D001231843C0B190470123C4F8C03FD4F8C03F024648B91023C4F8403FD4F8403F40F2D113A9
:40200000C4F8483F07E040F2C113C4F8483F02E0002200E00022D4F8043243F48033C4F80432D4F8043223F48033C4F80432D4F804320AB9012300E00223E366002A59D100
:40204000666E06F010066B6C23B10EB1012000E0022098477EB141F202036B602B6A43F001032B626B6B2B63002385F824300123C4F8883F70BD41F201036B602B6A43F093
:4020800010032B620123C4F8C83F2B78BBB1EB6BBBB1236E43F400532366ED6B802D05D9A5F18003802B0ED8813D0DE0013D236E43F4004323660023C4F8C83F04E000252B
:4020C00002E0002500E03F25236813F4006F01D0802300E040239D4204D34FF42071064801F042F9D4F8043323F0FF03EDB21D43C4F8045370BD00BF4CA9081038B54B6816
:40210000B3F5881F03D0B3F5901F1AD038BD0B69D0F840231A708B6901338B614B69013B4B612BB10B6901330B610423836638BD0B7B13B14FF4C01301E04FF4B0134B6087
:4021400038BD0C4605464A690969FFF71FFCA3690344A36163691B1A6361226910442061012B24D82B6E23F480732B666369012B16D12B6813F4006F01D0802300E0402320
:4021800023B94FF42071184801F0EEF8D5F8043323F0FF03C5F804334FF48813636038BD0023C5F8C83F4FF4B013636038BD402B01D89C1E00E03F242B6813F4006F01D0D5
:4021C000802300E040239C4204D34FF42071064801F0CAF8D5F8043323F0FF02E3B21343C5F8043338BD00BF4CA9081038B5CB6B002B50D00B78002B3FD00C460546D0F827
:402200000423D2B20132896BFFF7C0FB236C03442364E36B1B1AE363A26B1044A063802B06D9A3F18002802A0FD8A3F181040DE02B6E43F400432B66E36B0BB15C1E00E052
:4022400000240023C5F8C83F00E03F242B6813F4006F01D0802300E040239C4204D34FF42071104801F080F8D5F8043323F0FF02E3B21343C5F8043338BD0123C3668A6BD8
:402280000B6CD0F84003D0540B6C01330B64CB6B013BCB6338BD0223C3660023C0F8C83F38BD00BF4CA90810F8B50B78012B03D00C7A1CB9002702E0002700E001270028EE
:4022C00000F0A780002900F0A680002A00F0A58016460C460546013BDBB2022B03D94F214F4801F041F8637803B163791BB150214B4801F039F894F90330002B03DA5121B6
:40230000474801F031F8237913F0010F03D05221434801F029F82369102B03D95321404801F022F8E368102B03D954213C4801F01BF8637913B14FF4803100E00021E27969
:4023400012B14FF4807300E000230B4343F400632B60A37913B94FF4006300E000232269013A02F00F021A43E368013B1B01DBB21343227843EA82732B6617B140F2073330
:4023800001E040F20713C5F800330FB1254B00E0254B2B6763780BB17F2300E00023C5F80433E3785B00DBB2227943EA0243C5F810331E4BC5F80032A3780BB1402300E0FC
:4023C0000123C5F804320023C5F8C83EC5F8883EC5F8C83FC5F8883FC5F8083F2378022B02D040F2D11300E00023C5F8483F63783370A37873704FF0805373600020B06089
:40240000B06130623064F0633063F0627064B064F8BD0748F8BD0648F8BD0548F8BD00BF90A9081003002A0013102A00070101000120AA0038B505460C4621B940F2C321AF
:40244000194800F091FF2B6E9B0F012B17D1174B2344174A93421ED9A4F5BD13A3F5D66302F5611202F56162934216D9A4F57104A4F533440F4B9C4211D80F4838BD84B14C
:40248000286EC0F303102B6E03F00F0318440230B4FBF0F038BD094838BD094838BD002038BD002038BD00BF90A9081020AD88FF405B730040555C0440420F00801A0600C2
:4024C000A08601002DE9F84307468846914622B940F21221624800F047FF08F1FF34614B9C4204D940F213215D4800F03DFF3B6E9B0F012B0DD149463846FFF79BFF054643
:40250000D7F8003323F40073C7F80033564B3B67A2E0544B9C421FD8544B984509D8A9F5BD13A3F5D663524A934218D90021012328E0504B984507D84F4B4B444F4A9342AB
:4025400013D9002101231DE04D4B4B444D4A934212D90021012315E00021012312E0002141F288352E460B460CE000214FF461754FF4C8660B4605E001214FF4BE754FF4C0
:402580001B760023002B66D13F4BB3FBF9F3B6FBF3F404FB03F2964200D90134102C00D910240F2C8CBF00220122B5FBF3F606FB03F39D4200D90136102E00D91026A519D1
:4025C000B9FBF5F50FE022B10F2C09D80134002206E00F2E04D801360F2C8CBF00220122A519B9FBF5F5454502D9A3191F2BEAD941B1D7F8003343F40073C7F80033234B7F
:402600003B6707E0D7F8003323F40073C7F80033154B3B67E31F092B04D940F283511C4800F0A2FE3B6E23F0F003013C2401E4B223433B66731F0B2B04D94FF4B46114487D
:4026400000F092FE3B6E23F00F03013E06F00F061E433E6600E000252846BDE8F88300BF90A908103F420F0013102A00A0860100502D1900801A060020AD88FFA043210088
:40268000807E25FFC02BAF0000CA9A3B03002A00D0A908102DE9F04182B005460C4617469846089E11F0800F04D04FF4D961314800F05AFE304B984504D940F2C9612D4862
:4026C00000F052FE012F04D940F2CA61294800F04BFE0023C5F8483F7368B3F1805F41D14FF47A7303FB08F30193244B7360012F14BF00230123737340F21713C5F8003F28
:40270000D5F8003F0423C5F8C03FD5F8C03FD5F8043243F48033C5F80432D5F8043223F48033C5F80432D5F804326400E4B23C43C5F840420223AB66D5F8004F24F0F80421
:40274000E405E40DD5F8403F03F0C0031C4301A8FFF746FB54EA0001EED032462846FFF7C7FA00E0064840F2D113C5F8483F02B0BDE8F08190A908103789410000001310DF
:402780000220AA002DE9F04182B005460F4614469846089E11F0800F04D040F229712A4800F0E2FD294B984504D940F22A71264800F0DAFD012C04D940F22B71224800F083
:4027C000D3FD736813F4801F39D04FF47A7303FB08F301931E4B7360012C14BF0023012373736B6E13F0200F01D0092300E00123AB666B6E13F0200F05D0002009E001A8AA
:40280000FFF7EEFA00E0002018B9AB6E13F0010FF5D170B97F00FFB23C43C5F84042D5F8000F40F20714044001A8FFF7D9FA2043F5D0324601462846FFF75AFA00E0054835
:4028400002B0BDE8F08100BF90A9081037894100000013100220AA0070B582B005460C461646134B994204D940F28C71114800F07BFD736813F4801F17D04FF47A7303FBA4
:4028800004F401941823AB66D5F8004F24F0EE04E405E40D01A8FFF7A3FA54EA0001F3D032462846FFF724FA00E0034802B070BD3789410090A908100220AA002DE9F0439A
:4028C00083B0074688461C460A9D914622B94FF4FB61244800F048FD234B9C4204D940F2D971204800F040FDB8F1010F04D940F2DA711C4800F038FD6B68B3F5881F2BD19B
:402900004FF47A7303FB04F40194D7F8C06F06F00406D7F8001F40F201140C4001A8FFF75FFA44EA00010EB90029EED046B1D7F8403389F800300523C7F8C03FD7F8C03FEA
:402940002A463846FFF7D4F9034630B9B8F1000F03D10422BA6600E0044B184603B0BDE8F08300BF90A90810378941000220AA00F0B583B005460F4614461E46134B9A42FD
:4029800004D940F63201124800F0EEFC7368B3F5A01F17D14FF47A7303FB04F40194C5F84072D5F8004F24F0F804E405E40D01A8FFF716FA54EA0001F3D032462846FFF7B6
:4029C00097F900E0034803B0F0BD00BF3789410090A908100220AA0070B504460E46D0F88C3E13F0010F07D04FF480534B600123C0F8803ED0F8803ED4F84C5F40F2011302
:402A00001D420FD0336A15F4807F02D04FF4807200E08022134333620023C4F8C83F45F010050EE015F0100F0BD0D4F80833C3F3080333B1F36B23B10123C4F8C43FC4F8A5
:402A4000C83FD4F8CC3F13F0010F08D031462046FFF7CCFB0123C4F8C03FD4F8C03F15F0100F0AD031462046FFF702F81023C4F8403FD4F8403FD4F84C5F15F0C00F0DD09D
:402A800031462046FFF78EFA0123C4F8803ED4F8803EC023C4F8403FD4F8403FD4F88C3F13F0410F08D031462046FFF7ABF90123C4F8803FD4F8803F70BD00BF70B506466A
:402AC0000D46D0F8004E14F0020F0AD0836E2BB1002383668B6843F080738B604FF4C0136B6014F0010F05D029463046FFF736F824F0040414F0080F08D029463046FFF7E4
:402B0000FDFA0123C6F8C03FD6F8C03F14F0040F08D029463046FFF7E9F90123C6F8803FD6F8803F6B68B3F5C01F03D129463046FFF764F86B68B3F5B01F03D129463046AE
:402B4000FFF746F870BD00BF08B54B6813F4801F02D0FFF7B3FF08BDFFF73EFF08BD00BF2DE9F84305460C46036813F4006F02D04FF0800801E04FF04008D5F8007207F023
:402B80000F07A26A012A19D9D4F82490E262561EB9F1000F00D026B940F27351254800F0E3FB324649462846FEF72EFFA36A1B1AA362072F00D9400048446062D5F8083283
:402BC000C3F30803984533D0A36A012B30D10023A362072F02D8636A1E7801E0636A1E8800F02FFCC5F840624FF40073C5F8803FD5F8803F00F029FCD5F8883F23F40072A1
:402C000022F0010242F4007623F4EE6323F0030323B140F22A41084800F0A6FBC5F8886F236843F002032360236B0BB101209847BDE8F88310AA08104CA908102DE9F04176
:402C400005460C46036813F4006F01D0802600E040267608A769D4F81C8017B1B8F1000F04D14FF49961314800F07EFB424639462846FEF78BFE236A03442362E3691B1AE2
:402C8000E36173BBA368FBB1E3689E4201D8013E00E05E1E2B6813F4006F01D0802300E040239E4204D34FF42071214800F05CFBD5F8043323F0FF03F6B21E43C5F804630B
:402CC0000123C5F8C83F02E00023C5F8C83F636823F001036360236B33B304209847BDE8F081A169D5F8002302F00F02072A00D940000844A0619E4216D95C1E2B6813F47A
:402D0000006F01D0802300E040239C4204D34FF42071074800F028FBD5F8043323F0FF02E3B21343C5F80433BDE8F08110AA08104CA90810002800F0A48170B505460029C0
:402D400000F0A18116460C460B78022B03D93F21A24800F009FB637B023BDBB2062B03D940219E4800F000FBA37B3BB1022B05D0032B03D04121994800F0F6FA94F82130D5
:402D8000012B03D94221954800F0EEFA94F82830012B03D94321914800F0E6FA2378012B06D86368083B082B94BF0023012307E0A37F2BB16368013B062B94BF00230123C3
:402DC0001BB14521854800F0CFFAA368053B042B03D94621814800F0C7FA6369FF2B03D947217E4800F0C0FAA369FF2B03D948217A4800F0B9FAA37C6BB1237833B9A3688D
:402E0000092B05D1A37B2BB1012304E0012302E0012300E000231BB14A21704800F0A4FA636B23F4366323F00D031BB14C216B4800F09AFAE36B23F4EE6323F003031BB130
:402E40004D21664800F090FA2378022B01D1A37F13B16268013A00E00022237F13B14FF4803100E00021A368082B02D84FF4006300E000230B4302F00F02134343F00073CC
:402E80002B60226B2B6813F4006F01D0802300E040239A4203D36221504800F065FAA26B2B6813F4006F01D0802300E040239A4203D36321494800F057FA626A2B6813F4E3
:402EC000006F01D0802300E040239A4203D36421424800F049FA23781B0603F040732B64637F0BB1402200E00022A37C13B14FF4806300E000231343227C12B14FF48072CD
:402F000000E000221343627C12B14FF4007200E000221A43E36A013B1B0403F470231343627B013A02F007021343A27B120102F030021343AB64237B13B14FF4807200E063
:402F40000022E37B23B92378022B03D1012302E0012300E0002313B14FF4007300E000231A43A368013B03F00F031343C5F80033227DA3691B0403F47F031343C5F8103327
:402F8000E26AD5F8003303F00F0303339A4201D3102A03D97A21114800F0E6F9E37F23B12378012B03D0002302E0002300E0012313B14FF4807200E00022637B013B03F0FD
:402FC00007031A43A37B1B0103F0300313436B64237B2BB14FF4807203E000BF50AA08100022A368013B03F00F0313432278012A02D14FF4803200E000221343C5F80032EA
:4030000094F83030C5F8043394F8203013B14FF0007200E0002294F82130012B02D14FF0807300E00023134394F82820012A02D14FF4803200E00022134394F824201343B1
:403040002B6594F83830C5F80432636B23F4926323F002031B051B0DC5F8C83FE36B23F08C035B055B0DC5F8883F76B1002070603060B060F0603062F0623063044B7363FC
:4030800070BD04487047034870BD002070BD00BFEFCDAB000160AA000B694A69934202D34869181A7047CA694869101A184470472DE9F04107460D46036813F4006F02D0C4
:4030C0004FF0800801E04FF040084FEA5808D7F80863C6F308062C6926E00134EB689C4200D100246B699C420FD12B6B0BB1082098476B699C4208D10023C7F8C83F0CB1F5
:40310000013C13E0EC68013C10E0D7F84023D7F8003303F00F03072B02D8AB681A5502E0AB6823F81420013E002ED6D12C61EC6829463846FFF7B0FF201A804519D908B1A2
:40314000441E00E000243B6813F4006F01D0802300E040239C4204D34FF42071064800F003F9D7F8040320F0FF03E0B21843C7F80403BDE8F08100BF4CA9081038B50446A2
:403180000D46D0F8003E13F0080F35D0D0F8CC3F13F448730AD04A681A434A60C0F8C03FD0F8C03F0B6B0BB110209847D4F8CC3F13F4006F09D06B6843F400636B604FF40F
:4031C0000063C4F8C03FD4F8C03FD4F8CC3F13F0010F11D0EB6923B129462046FFF72EFD05E0AB681BB129462046FFF761FF0123C4F8C03FD4F8C03FD4F8003E13F0040F44
:403200002ED0D4F88C3F13F4A0630AD02A681A432A60C4F8803FD4F8803F2B6B0BB120209847D4F88C3F13F0010F08D029462046FFF796FC0123C4F8803FD4F8803FD4F850
:403240008C3F13F4007F0BD00022C4F8882F2B6823F001032B60EA622B6B0BB10220984738BD00BF38B50D4B9A680D4B9A420FD10D46044621B940F237110A4800F074F80B
:4032800004F11003064A52F8230042F8235038BD1030054B53F8200038BD00BF00ED00E00040020890AA08100000081048B338B504460D464368072B03D93221134800F09B
:4032C00053F8B4F900306268002B08DB5201D2B203F1604303F5614383F8002305E003F00F035201D2B20A49CA540A4B9A680A4B9A4208D12946B4F90000FFF7B3FF0020AF
:4033000038BD06487047002038BD00BF90AA081014ED00E000ED00E0004002080100560010B5044605E0084B186800F081F8A4F50044B4F5004FF6D8044B186800FB04F08D
:4033400000F076F810BD00BF484302084443020808B5034B1B7800FB03F000F069F808BD4043020801BEFEE738B50D46044C18220146204605F038F9A5610020FFF7F2FFC0
:40338000D84C0208FEE700BF08B50268254BDA6142681A6282685A62C2689A620269DA6242691A6382695A63C2699A631E4A916AD963D16A1964516A5964516B9964926B53
:4033C000DA64F1EE103A13F0900F27D0026A154B1A65426A5A65826A9A65C26ADA65026B1A66426B5A66826B9A66C26BDA66026C1A67426C5A67826C9A67C26CDA67026DE2
:40340000C3F88020426DC3F88420826DC3F88820C26DC3F88C20026EC3F89020FFF7B2FF08BD00BFD84C020800ED00E0000000000230800803D001300238FCD100BF00BFF7
:403440007047EFF3108072B6704780F31088704710B30246C3680BB303680BB330B40579114B03EB85035C682346002103E0934205D019465B69002BF9D1012000E000201D
:4034800080B124B9084B03EB85056A6000E04A6111610023536105E000207047002070470020704730BC7047AC6C020850B310B402460479164B03EB840359680B4602E010
:4034C000934204D05B69002BFAD1002000E00120D0B18A420ED14B6933B10D4A02EB8404636000221A610FE0094B03EB84040023636009E01A69596951615A6922B11B69BF
:40350000136101E0002070475DF8044B704700BFAC6C020830B583B004460D46022808D9042806D0032804D040F6B2112848FFF71BFF6B1EDBB2012B08D9042D06D0082D8A
:4035400004D040F6B3112248FFF70EFF214800EB84004468042D12D0012D1AD111E0A3681D420AD1E3681A6800925B6801932368294668469847174B9C61646902E00020BF
:4035800000E0002014B3144B9842E8D1012DE6D11CE0022D01D104E01C466369002BFBD103E00C4B9C6904B1246900200CE0A3681D4208D1E3681A6800925B680193236856
:4035C0002946684698472469002CF0D103B030BDD4AA0810AC6C0208FF00420010B5044620B940F6A1211748FFF7BEFE164A1368DB6803F5F2431B6823601368DA6802F5C6
:40360000F04212686260D96847F604028A58A260D96847F608028A58E260D96847F60C028A582261D96847F610028A586261D96847F614028A58A261DA6847F61803D358A4
:40364000E36110BDD4AA0810B436030810B5044620B940F6C9211748FFF786FE164B1B68DA68616802F5F0421160D968A06847F604028850D968E06847F608028850D968F7
:40368000206947F60C028850D968606947F610028850D968A06947F614028850D968E06947F618028850DB68226803F5F2431A6010BD00BFD4AA0810B436030870B5044605
:4036C000012804D94FF426713A48FFF74DFE3A4B9B682BB101210846FFF71CFF054600E00025002D5ED1FFF7ACFE0646324B9B681BB104210120FFF70DFF304B1B6893F88D
:40370000432042B19B68D3F8E03013F0100F02D02B48FFF763FF4FF0B0539B899BB223B14FF0B0539B899BB201E04FF48073B3F5807F03D1204606F09FFE1AE0214A1369F0
:4037400043F004031361012C01D030BF07E020BF194B1B7803B120BF0122174B1A70174B1B681A68D3F89430D35803F00303022BE4D0124B1B6893F8432042B19B68D3F8C5
:40378000E03013F0100F02D00D48FFF75FFF3046FFF75BFE084B9B684BB108210120FFF7B9FE04E002210120FFF7B4FE064D284670BD00BFD4AA0810AC6C0208B436030824
:4037C000C86C020800ED00E0FF004200014B1860704700BFB4360308002800F0AC8070B40446002A00F0A98092F828300BB1012500E00025137F0BB1022300E000231D43BA
:403800001669B60406F4802645EA060395682D0405F440351D431668300600F0E0602843136B556B43EA45031B0503F440130343906B43EA8000052E03D1D3681B029BB275
:4038400002E053681B029BB20343081D800123501368062B08D104EB81130120C3F808013F20C3F828011DE0936843B904EB81130020C3F808013120C3F8280112E0012B04
:4038800008D1506904EB8113C3F808011C20C3F8280107E004EB81130120C3F808011220C3F82801106A04EB8113C3F80C01506AC3F810015069C3F814019069C3F8180109
:4038C000136EB3F1FF3F17D0106C00F00F00966C360206F470663043156D2D0405F470250543906D000380B228431B01DBB2034304EB8110C0F82031D36B03F00303566CEF
:40390000360106F030063343D56C2D0205F440752B43506D8001C0B21843D36D9B0003F00C03034304EB8114C4F82431D36AC4F83831002002E002487047014870BC7047CE
:403940000100B6002DE9F04303685F4EA6FB034E4FEA5E1E642707FB1E3E5C4DA5FB0E43DC0804EB840C4FEA4C03C3EB0E0303EB041303F07F044368A6FB03E6760907FB2A
:403980001636A5FB0653DD0805EB85077B00F31A03EB05131B0203F4FE432343447BFCB1047B14B143F4001401E023F4001444F480048368444FA7FB03577F09642505FBCA
:4039C0001737424DA5FB0735EE0806EB86035D007D1B05EB06152D0405F4F8152C4315E08468394EA6FB04567609642505FB1646364CA4FB0654E50805EB85077C00341B82
:403A000004EB0514240404F47C141C4303692E4FA7FB035E4FEA5E1E4FF0640C0CFB1E3E2A4EA6FB0E53DD0805EB85084FEA4803C3EB0E0303EB05131B0603F0E0631C43E1
:403A40004369A7FB035E4FEA5E1E0CFB1E3EA6FB0E53DD0805EB85084FEA4803C3EB0E0303EB051303F03F038569A7FB05E84FEA58180CFB1858A6FB085E4FEADE0505EBED
:403A800085094FEA490ECEEB080E0EEB051E4FEA0E2E0EF4F85E43EA0E05C369A7FB03077F090CFB1737A6FB0703D80800EB80067300FB1A03EB00131B0403F47F032B43B0
:403AC0000C601360BDE8F0831F85EB51CDCCCCCC2DE9F84F0646FFF7B4FC0446554B1B6913F0010F0CD1534B9B6813F0020F07D1504D0123AB60B720FFF72AFC0023AB6097
:403B00002046FFF7A2FC4B4B9B691B0CC3F3031202EB8202570003F00F031F4407F5FA677469651E0B2D04D940F2BE314248FFF71BFC27B940F2BF313F48FFF715FC3F4B2B
:403B400013F805A0022C21D127B94FF468713A48FFF70AFC17F0030F07D1394BA3FB07235B09642202FB137353B9354BA3FB0723DB094FF4C87202FB13731BB9012302E03F
:403B8000012300E000230BB10AF1010A4FF0010BD9465C4645E0D6F810807569631E1E2B04D940F26D312448FFF7DEFB6B1E0B2B04D940F26E312048FFF7D6FB27B940F24F
:403BC0006F311D48FFF7D0FB022D02D80C357A1E00E03A461A2305FB03331A4DA5FB031304EBD303134403EB92031549A1FB0212510901EB41014800034403EBD21312493B
:403C0000A3FB0112991A02EB51018908C1EBC101591A00D10721884502D109F10109A3460134F368994501D85445B4D95846BDE8F88F00BF0000274090AC081084AC0810F0
:403C40001F85EB51CDCCCCCC254992242DE9F84304460E46154603687F4AA2FB030149094FF0640C0CFB11317C48A0FB0173DF0807EB870E4FEA4E03CB1A03EB071303F0FB
:403C80007F032779FF01FFB21F43A368A2FB032E4FEA5E1E0CFB1E3EA0FB0E30C00800EB80035900C1EB0E0101EB0011090201F4FE413943237BDB039BB241EA0307FFF70F
:403CC000C0FB8046664B1B6913F0010F0FD1644B9B6813F0020F0AD1DFF884910123C9F80830B720FFF734FB0023C9F808304046FFF7ABFB5A4B5B6913F4800F39D02369A3
:403D00000B2B1AD90C3B00D10C235349A1FB03214909642202FB1131504BA3FB0123DA0802EB82004300CB1A03EB02131B0403F4F81343F400133B4318E013B947F440237C
:403D400014E04549A1FB03214909642202FB1131424BA3FB0123DA0802EB82004300CB1A03EB02131B0403F47C133B4343F4800315E023693849A1FB03214909642202FBAB
:403D80001131364BA3FB0123DB0803EB830042008A1A02EB03131B0403F47C133B43227DD20502F400021343A2692B48A0FB021C4FEA5C1C4FF0640E0EFB1C2C2749A1FB64
:403DC0000C72D70807EB87084FEA4802C2EB0C0202EB0712120602F0E0621A43237F42EAC372236AA0FB03C77F090EFB1737A1FB07C34FEAD30C0CEB8C084FEA4803FB1A82
:403E000003EB0C1303F03F0C94F82430DB01DBB24CEA0307A36AA0FB03C040090EFB1030A1FB0031C90801EB810E4FEA4E039E46C31A03EB01131B0203F4F8533B4394F8E2
:403E40002C10C90389B20B4394F82D1043EAC17332602B60BDE8F8831F85EB51CDCCCCCC00002740F0B583B0002800F09680044603683B2B03D956214C48FFF775FA63689A
:403E80003B2B03D957214948FFF76EFAA368172B03D958214548FFF767FA2369013B062B03D959214148FFF75FFAA369013B0B2B03D95A213D48FFF757FAE369632B03D955
:403EC0005B213A48FFF750FAA669E56905F5FA65771E0B2F04D940F2BE313548FFF744FA25B940F2BF313248FFF73EFA314BDF5D022E20D125B94FF468712D48FFF734FA3C
:403F000015F0030F07D12C4BA3FB05235B09642202FB135353B9284BA3FB0523DB094FF4C87202FB13531BB9012302E0012300E0002303B101376369002B30D0BB4230D816
:403F400001AA69462046FFF7FDFCFFF77AFA05461A4B1B6913F0010F0BD1184B9B6813F0010F08D1154A936843F002039360002402E0134C00E0124C5CB9104B009A5A61C6
:403F8000019A9A619A6822F002029A603E20FFF7DFF92846FFF759FA04E00A4C02E0094C00E0084C204603B0F0BD00BFCCAC081090AC081084AC08101F85EB5100002740D9
:403FC0000300A2000100A20008B5FFF74BFF08BD70B5044618B98C213748FFF7C5F9FFF730FA0546354B1B6913F0010F0CD1334B9B6813F0020F07D1304E0123B360B7203F
:40400000FFF7A6F90023B3602846FFF71EFA2B4B5A699B69C2F3021101EB8101480002F00F0101442160150AC5F3021101EB8101480005F00F0528446060C2F38051617387
:4040400069B1110CC1F3001085002844450001F00F012944A160C2F3405121730BE0110CC1F3011000EB8000450001F00F012944A16000212173C2F302622261C3F30112C0
:4040800002EB8202510003F00F020A4462611A0AC2F3001188000144480002F00F020244A2611B0CC3F3031202EB8202510003F00F030B44E36170BDCCAC0810000027406E
:4040C0002DE9F04182B0002800F0F98004460E46012903D9D0217E48FFF746F923683B2B03D9D2217A48FFF73FF92379012B03D9D3217748FFF738F9A3683B2B03D9D521B5
:404100007348FFF731F9237B012B03D9D6217048FFF72AF92369172B03D9D8216C48FFF723F9237D012B03D9D9216948FFF71CF9A369013B062B03D9DB216548FFF714F96E
:40414000237F012B03D9DC216148FFF70DF9A36A013B0B2B03D9DE215D48FFF705F994F82C30012B03D9DF215948FFF7FDF894F82430012B03D9E1215548FFF7F5F894F88E
:404180002D30012B03D9E3215148FFF7EDF8FFF758F905464F4B1B6913F0010F0CD14D4B9B6813F0020F07D14A4F0123BB60B720FFF7CEF80023BB602846FFF746F9454B1F
:4041C0009B691B0CC3F3031202EB8202550003F00F031D4405F5FA65A76A07F1FF38B8F10B0F04D940F2BE313B48FFF7BDF825B940F2BF313848FFF7B7F8384B13F80880DA
:40420000022F21D125B94FF468713348FFF7ACF815F0030F07D1324BA3FB05235B09642202FB135353B92E4BA3FB0523DB094FF4C87202FB13531BB9012302E0012300E0E0
:4042400000230BB108F10108236A002B39D0434539D801AA69462046FFF7F8FCFFF7F1F805461C4B1B6913F0010F0BD1194B9B6813F0010F08D1174A936843F0020393607B
:40428000002402E0174C00E0164CA4B9012E05D0104B009ADA61019A1A6204E00D4B009A5A62019A9A620B4A936823F0020393603E20FFF74DF82846FFF7C7F804E00A4C31
:4042C00002E0094C00E0084C204602B0BDE8F081CCAC08100000274090AC081084AC08101F85EB510300A2000100A20030B58DB004460378012B04D940F282311E48FFF739
:4043000033F8002C34D00023009301228DF8042002938DF80C20616804918DF81420226906928DF81C302378012B04D02046FFF7CFFB089001E0A368089301238DF8243072
:4043400062690A928DF82C308DF82D3018240B4D08E001216846FFF7B3FE0546013C3E20FEF7F6FF0DB1002CF3D114B9044D00E0024D28460DB030BDCCAC08100100A2000A
:404380000200A20070B50E46044620B940F2CF311A48FEF7E9FF26B94FF474711748FEF7E3FF23780BB1A56803E02046FFF790FB0546237E0BB1206A03E004F11800FFF7C9
:4043C00087FB63696D0145EA832563681D43B26973695B0143EA8223B2681343E26A400140EA8220E26910439D4203D8834203D3002070BD002070BD012070BDCCAC0810A6
:40440000704700BF2DE9F04188B004466846FFF7DFFD69462046FFF7B5FF002863D0029B172B56D9049B0133049300220292072B01D901230493059D01350595069F079EF2
:4044400006F5FA6607F1FF38B8F10B0F04D940F2BE315448FEF788FF26B940F2BF315148FEF782FF504B13F80880022F21D126B94FF468714B48FEF777FF16F0030F07D18F
:404480004A4BA3FB06235B09642202FB136353B9464BA3FB0623DB094FF4C87202FB13631BB9012302E0012300E000230BB108F10108454504D901230593069B01330693BB
:4044C000069B0C2B07D901230693079B0133079301E0013302936846FFF7C4FC04F11800FFF704FF5AE0029B002B4FD117230293049B013B04930BB901230493059B013B05
:404500000593002B3AD1069E079D05F5FA65771E0B2F04D940F2BE312248FEF725FF25B940F2BF311F48FEF71FFF1F4BDF5D022E20D125B94FF468711A48FEF715FF15F011
:40454000030F07D1194BA3FB05235B09642202FB135353B9154BA3FB0523DB094FF4C87202FB13531BB9012302E0012300E0002303B101370597069B013B0693069B3BB950
:404580000C230693079B013B079301E0013B02936846FFF767FC2046FFF7A8FE08B0BDE8F08100BF90AC081084AC08101F85EB51704700BF014B986B704700BF0000274055
:4045C00010B5044630F0070304D040F205510348FEF7CAFE024BDC62DB6A10BDCCAC08100000274010B5044630F0070304D040F21A510348FEF7B8FE024B5C6310BD00BF52
:40460000CCAC08100000274070B506460D46FFF7D1FF0446FFF7D4FF14F0010F01D0FFF7EFFE14F0020F06D01DB13046FFF7EAFE01E0FCF7A9FA14F0040F01D0FFF7B8FF05
:4046400070BD00BF10B5012902D0082929D02EE01A4B1B78012B2CD00320FCF73FFF184B984228D0FEF7EDFE164B1860022007F007FA044607F00FFA022C05D1032805D08B
:40468000052805D1002404E00F4C02E0002400E00D4C0D4B9C420FD10A4B1868FEF7D5FE0AE0084B1868FEF7D0FE002404E0064C02E0054C00E0044C204610BDBC36030835
:4046C00001018800E86C0208FF00420008B502291CD0082914D001291ED1124B1B78012B1CD0FEF7AEFE104B5860022007F0C8F9022815D00C4B5868FEF7A7FE0B4808BD21
:40470000094B5868FEF7A1FE002008BD064B5868FEF79BFE054808BD044808BD034808BD002008BDBC360308E86C0208FF00420010B5044C2046FEF7B9FE04F11800FEF770
:40474000B5FE10BD4C430208B0B110B50B4A9060C36A03B1D3600024094B1C70094B1C70094B1C60094B1C7000F068F9084B1C70084B1C70204610BD07487047E86C020867
:40478000D0360308D4360308D8360308D5360308BB360308C03603080100160070B59AB0404D15AC28686968AA68EB680FC4286920604C22002102A803F070F93A4B02937A
:4047C00015AB049341F6E433ADF8143005238DF81630364B9B681B69069340F26A3307931B23ADF82030ADF8223003238DF8243004238DF8253006228DF826208DF8283034
:4048000008238DF829305023ADF84C3001238DF85030274C2046FEF71BFE04F11800FEF717FE08A807F082F90346002836D1214B03931E4B9B68996B89B10B460DF12A02F3
:4048400020311E685D689C68D868166055609460D060103310328B42F3D11B88138002A807F02CF90346B0B90122134B1A700023124A1370124A13700C4B9B681A6A0092E9
:404880009B6ADB88ADF804300923ADF8063068460FF0E6FD034600210A4A116018461AB070BD00BF08AD0810DD4F0810E86C02084C4302086C4D0208BC360308C436030810
:4048C000C5360308D836030818B1034A1061002070470248704700BFE86C02080100160008B5044B1B689847034B1B6803B1984708BD00BF0C6D0208F86C020808B510B141
:40490000034A52689047034B1B6803B1984708BD0C6D0208F86C020870B5C0B006460C4615464FF480720849684603F0ACF805E016F8012B6A401DF80250013C002CF7D1C5
:40494000284640B070BD00BF1CAD081008B50022FFF7E2FF08BD00BF08B5FEF772FD08BD08B5FEF772FD08BD08B50120FCF7CEFF08BD00BF08B50120FCF79EFF08BD00BFF2
:4049800008B5094B58601960012208491046FCF7E1FE034628B9002205490120FCF7DAFE0346184608BD00BF0C6D0208FD480810E148081038B515460B4602460121002024
:4049C000FCF776FE044618B129460120FCF7EAFE204638BD704700BF704700BF0020704700487047110016000048704711001600004870471100160000487047110016001C
:404A00000048704711001600004870471100160000487047110016000048704711001600004870471100160000487047110016000048704711001600704700BF08B50248EF
:404A400000F060FE08BD00BFC8440208F8B5022872D8002972D10022134606E03B4CE45C012C01D90132D2B20133002BF6D0012A0CD1374B1B681C6801EB810293002344BC
:404A80005B681B79023BDBB2012B59D8314B1B78002B57D1304B1970E0B92D4F3C68236801EB8105AA009D186668C1EBC1014B001E44B18829822168114449686468E45A97
:404AC0000C8039680C682244526849680B445B8853801EE001281CD11D4F3C68236801EB8105AA009D186668C1EBC1014B001E44B1892982216811444D68616819440989A6
:404B0000298039680C682244526849680B445B895380124B18700E4B1B6818680E4B1B7803EB83039A0010440BF05AFB034650B90121084A117006E0094B04E0084B02E067
:404B4000084B00E0084B1846F8BD00BFC4360308F06C0208C5360308BA360308D53603080100160002001600FF00160070B439B9144B1B681B689968CE7F00231D460EE0DA
:404B8000104B1B681B68D968CE7FF6E7CA5C52B10133CC5C1B2C01D0134400E00125B34201D2002DF2D05DB101338279CA54002204E0D4180134855C0D550132052AF8D980
:404BC00070BC7047F06C020870B504460FF062FC054620BB134B1968086A228902EB82029300143B03445A6812F0007F17D0E67B1B695A68CB69D21A06EB8606B318A28881
:404C000021680948184402F03EFFE37B074AD35C012B04D1064A137843F002031370284670BD00BFF06C0208C8360308C0360308BB36030830B587B002891A4B1B685B6981
:404C40009B889A4229D1044601AB07C883E807000022ADF81020A289ADF8122040228DF814201846FFF7B0FF054680B923681B7803F002039BB22BB10B4B1B6821460B4897
:404C8000984704E0084B1B68214609489847094A137803F0FE03137000E00025284607B030BD00BFF06C0208F46C02080500010006000100D03603084288531E9BB2162BE2
:404CC0001AD84178D1B910B40F4B1868046A02EB82029300143B23445A6812F0007F0FD01B695A68C369D31A01EB81011944074B5B5A1380002004E001207047012070471F
:404D000000205DF8044B7047F06C0208C8360308C8B1104B1B68196A038903EB83039B00143B0B445B6813F0007F0ED100B587B001AB00210491059107C883E807001846CF
:404D4000FFF742FF03E00E2070470120704707B05DF804FBF06C0208A1B1A8B110B586B0034601AC00220492059207C984E807001B88ADF8123040238DF814302046FFF7AB
:404D800023FF03E00E2070470E20704706B010BDF0B583B000283ED006460388ADF804309DF8053013B92348C35C00E00023012B34D9172935D87378D3B100251E4834E02C
:404DC000601800EB80008300143B7344586810F0007F0BD070781B695B68FD695B1B00EB8000164D2844C35C13800125013401E000242546124B1F68D7F820E001EB81004B
:404E00008300143B73441B895B1A9C420CD8002DD6D0094809E00025074806E00025094803E00025044800E0034805B1002003B0F0BD00BFC436030801001600C836030898
:404E4000F06C02080700160000B583B00DF10602FFF79EFF20B9BDF8060000F0010000E0002003B05DF804FB30B3034631B330B587B00288ADF804209DF8052012B9144842
:404E8000825C00E00022012A1AD91D460C460846FFF73EFFB0B921892846FFF7D5FF98B102AB94E8070083E807002A88ADF8142018460EF02BFC08E0064870470548704789
:404EC000054802E0054800E0054807B030BD00BFC43603080100160007001600020016001700160000B583B00023ADF804308389ADF800300389ADF8023012238DF8043012
:404F0000084B1B7813F0010F09D129B18DF8051068460EF0DBFB02E0C0680EF005FC03B05DF804FBD036030810B4044688B10023194606E0104A52F82320944200D1012128
:404F400001330D4A1279934206D20029F2D0002003E00021094800E0002050B949B9064B1B792BB9044A42F823400133137100E003485DF8044B7047DC36030801001600DD
:404F80000300160070B506460D460020044606E0084B53F824302946304698470134054B1B799C4204D2044B1B7813F0010FEFD170BD00BFDC360308D036030883792BB19A
:404FC00000207047C25C32B9013300E00023052BF8D9002070470120704700BF70B58CB004460D46C04A137843F00103137044F20803984200F04C823CD842F204039842DC
:4050000000F0F18019D841F20203984200F0188108D8B0F5805F76D041F20103984200F00C8155E341F20303984200F0428141F20403984200F047834AE343F21903984227
:405040005BD00AD843F20103984200F0BA8043F21203984200F0B5803AE344F20603984200F01A8200F2CD8144F20403984200F033812DE345F20C03984200F0DB821BD870
:4050800045F20103984200F046820AD844F20A03984200F0B38144F21003984200F0B18116E345F20203984200F07F8245F20303984200F093820BE345F21003984200F09D
:4050C000F4820AD845F20E03984200F0E88245F20F03984200F0E682FAE245F21703984200F0E98246F20103984200F0118245F21403984240F0EC82DAE27B4A137803F0A1
:40510000FE031370E4E2794B1E683046FFF756FF60B130460CF02CF8744E00213068FFF725FD01213068FFF721FD37E0704B1A68936A1B791BB34FF0B05191F8043603F069
:405140003F0391F8050600F03F0043EA801391F8030600F01F0043EA003391F8001601F07F0143EA4143126B1370614A1168096BC3F3072048701268126B1B0C93705C4EB0
:405180003368186B0BF0F4FF33680021186BFFF7EDFC33680121186BFFF7E8FC544B1B68986A02300CF0F0FA0023059306933F238DF8143005A80BF0FFFF02224D4B1A7004
:4051C00086E200234B4A13704B4A13704B4A13700A20FEF7A5F843F212039C4240F07882FFF7A6FA74E2464B1B6813F0010F40F06F820023ADF814308DF816303C4E33689E
:405200009B6A93F900308DF8143005A80BF0EEFF33689B6A93F901308DF8143001238DF81530FF238DF8163005A80BF0DFFF344A136843F0010313604AE2FFF7A3FE47E239
:405240004978304B1B88ADF81430002319E02E4A32F81320ADF808209DF8092012B92B48825C00E00022012A0AD9274A12F81320914205D1244A32F81330ADF8143002E0C1
:405280000133002BE3D09DF81530FF2B05D104D140F2CA311E48FEF767F8BDF81430ADF82030ADF81C30C3F307232978194AD1540EE20B78002B40F00B820B7A33B9164B31
:4052C0000022DA809A80154A1A604B60064A137803F0FE031370FBE149790A4B1B88ADF81430002336E000BFD03603087C430208F06C0208BC360308C5360308246D0208ED
:40530000D83603081CAE0810B8360308C436030820AE0810D43603082C6D020850690208B34A32F81320ADF80C209DF80D2012B9B048825C00E00022012A0AD9AC4A12F875
:405340001320914205D1AA4A32F81330ADF8143002E00133002BE3D09DF81530FF2B05D104D140F2CA31A448FDF7FEFFBDF81430ADF82430ADF81430C3F3072369789F4AD5
:40538000D154EB78002B40F0A38169799C4B1B88ADF81430002319E0954A32F81320ADF810209DF8112012B99248825C00E00022012A0AD98E4A12F81320914205D18C4A77
:4053C00032F81330ADF8143002E00133002BE3D09DF81530FF2B05D104D140F2CA318648FDF7C2FFBDF81430ADF82830ADF81430C3F307230121834AD15469E1FFF7C2FD32
:4054000066E12B78002B3FD1AB78012B02D100227D4B1A7069787A4B1B88ADF81030002319E0734A32F81320ADF814209DF8152012B97048825C00E00022012A0AD96C4A83
:4054400012F81320914205D1694A32F81330ADF8103002E00133002BE3D09DF81130FF2B05D104D140F2CA316348FDF77DFFBDF81030ADF82C30ADF81030C3F30723FF2B75
:4054800002D0A978614AD1540222614B1A701FE102225F4B1A701BE1FFF774FD5D4B1B7813F0010F00F01481574B1B78012B03D10222554B1A700BE1032B03D10022524B11
:4054C0001A7005E1022B40F0038100224E4B1A70514B1B685B68514A1178C1EBC10203EB42039A79002A00F0F3809B88002B00F0EF804B4B1B78002B40F0EA800120FFF71C
:40550000A5FA002840F0E48001223F4B1A70DFE0FFF738FDDCE00B88ADF800309DF801301BB90221334AD15405E023B940F286313148FDF719FF6A7829882D4B23F81210F5
:405540006B780021374AD15403EB8301364E8819314B1B681B692A7802EB820202F55A72134453F8022F8A511B790371687800EB800004213044FFF7E9F96B7803EB8303C8
:4055800033441B7998420BD0284B1B680021284898476B7803EB8303981900229A51027129462046FFF7EEFC92E00B88ADF804309DF805301BB900210E4AD15405E023B9AD
:4055C00040F286310C48FDF7CFFE6B7800210D4AD15429462046FFF7D5FC79E00B88ADF814301723ADF8163005A80EF07BF86FE0B8360308C436030820AE0810C036030845
:405600001CAE0810246D0208C5360308286D0208BC360308D0360308F06C0208BA360308D5360308D4360308C8360308F46C0208040001000846FFF7FDFA014620B929466C
:405640002046FFF79FFC01462846FFF74BFC294B1B7813F0110F04D0274B1B682946204698472A89234B1B7813F0010F11D0531E9BB2162B0DD912238DF81830ADF8162030
:40568000AB89ADF8143001238DF8193005A80EF01DF8184A137803F0FE03137018E0FFF771FC15E0FFF76EFC12E0FFF76BFC0FE0FFF768FC0CE00846FFF7FEFA2946204672
:4056C000FFF760FC04E00D4A137843F001031370084B1B7813F0110F09D0064A137803F0FE031370044B1B682946204698470CB070BD00BFD0360308F46C0208BB360308FF
:405700000020704730B108B5034A10600348FFF70BFC08BD02487047386D0208015708100100160070B539B900240AE015F8010BFBF784FC013402E016460D460024B44263
:40574000F4DB204670BD00BF70B561B900240FE0FBF780FCC0B2287001340A2808D00D2806D0013502E016460D460024B442EFDB204670BD00F1080343604FF0FF328260C5
:40578000C360036100230360704700BF00230361704700BF43684B609A688A609A68516099600861036801330360704730B40D68B5F1FF3F01D1026907E000F1080200E01D
:4057C0001A4653681C68A542FAD253684B6099608A605160086103680133036030BC704703694268816891608268416851605A68904201D182685A60002202611A68013ACF
:405800001A601868704700BF10B5044601F08AFAA26BE36B9A4201D1012400E0002401F0A3FA204610BD00BF10B5044601F07AFAA36B0BB9012400E0002401F095FA20466D
:4058400010BD00BF70B504461646856B026CFAB166B9806802F017F9A268236C1344A3606268934214D32368A36011E0C06802F00AF9236C5B42E2681A44E26021688A423F
:4058800002D262681344E360022E01D105B1013D0135A563002070BD026C72B110B50346C4681444C4604068844201D31868D8600846D96802F0E7F810BD704738B50546D2
:4058C00001F030FA95F8454064B20AE06B6A53B105F1240000F046FF08B100F0D1FF013C64B2002CF2DCFF2385F8453001F03CFA01F018FA95F8444064B20AE02B6953B1A6
:4059000005F1100000F02EFF08B100F0B9FF013C64B2002CF2DCFF2385F8443001F024FA38BD00BF38B540B94FF0200383F31188BFF36F8FBFF34F8FFEE704460D4601F0B6
:40594000F1F92168E26B236C03FB021060600020A063A160013A02FB0313E360FF2384F8443084F845307DB92369ABB104F1100000F0F8FE80B14FF08052094B1A60BFF385
:405980004F8FBFF36F8F07E004F11000FFF7F2FE04F12400FFF7EEFE01F0E6F9012038BD04ED00E010B5029B0C4609B91B6000E01A60D8631C6401211846FFF7B3FF10BDDA
:4059C00040B94FF0200383F31188BFF36F8FBFF34F8FFEE7F0B583B0034611B101FB00F000E000201D4617460C46483001F0D8FA064638B100903B4600F1480221462846A6
:405A0000FFF7D0FF304603B0F0BD00BF40B94FF0200383F31188BFF36F8FBFF34F8FFEE7884208D24FF0200383F31188BFF36F8FBFF34F8FFEE710B50C4602220021FFF7F1
:405A4000BFFF034600B18463184610BDF0B585B0019240B94FF0200383F31188BFF36F8FBFF34F8FFEE7044619B9026C1AB9012202E0012200E0002242B94FF0200383F306
:405A80001188BFF36F8FBFF34F8FFEE7022B03D1E26B012A02D102E0012200E0002242B94FF0200383F31188BFF36F8FBFF34F8FFEE71D460E4600F0EBFE18B9019B1BB973
:405AC000012302E0012300E0002343B94FF0200383F31188BFF36F8FBFF34F8FFEE7002701F020F9A26BE36B9A4201D3022D21D12A4631462046FFF7A5FE636A6BB104F1C6
:405B0000240000F02FFE88B14FF08052324B1A60BFF34F8FBFF36F8F08E038B14FF080522D4B1A60BFF34F8FBFF36F8F01F01CF901204EE0019B1BB901F016F9002048E082
:405B40001FB902A800F052FE012701F00DF900F067FC01F0E7F894F844305BB2B3F1FF3F02D1002384F8443094F845305BB2B3F1FF3F02D1002384F8453001F0F5F801A9ED
:405B800002A800F03DFEF0B92046FFF73DFEA0B1019904F1100000F0ADFD2046FFF78EFE00F0CCFC00289BD14FF080520A4B1A60BFF34F8FBFF36F8F92E72046FFF77EFEA1
:405BC00000F0BCFC8CE72046FFF778FE00F0B6FC002005B0F0BD00BF04ED00E02DE9F84340B94FF0200383F31188BFF36F8FBFF34F8FFEE7044619B9006C18B9012002E0C8
:405C0000012000E0002040B94FF0200383F31188BFF36F8FBFF34F8FFEE7022B03D1E06B012802D102E0012000E0002040B94FF0200383F31188BFF36F8FBFF34F8FFEE7DA
:405C40001F469046894601F07FF9EFF311864FF0200383F31188BFF36F8FBFF34F8FA26BE36B9A4201D3022F1ED194F845506DB23A4649462046FFF7E5FDB5F1FF3F0DD10D
:405C8000636A9BB104F1240000F06CFD80B1B8F1000F0FD00120C8F800000CE06B1C5BB284F84530012006E0002004E0012002E0012000E0012086F31188BDE8F88300BF1E
:405CC00040B94FF0200383F31188BFF36F8FBFF34F8FFEE770B50446036C43B14FF0200383F31188BFF36F8FBFF34F8FFEE703681BB943681BB9012302E0012300E00023C2
:405D000043B94FF0200383F31188BFF36F8FBFF34F8FFEE70E4601F017F9EFF311854FF0200383F31188BFF36F8FBFF34F8FA26BE36B9A4218D294F845305BB20132A263EC
:405D4000B3F1FF3F0AD1636A83B104F1240000F009FD68B176B1012030600CE001335BB284F84530012006E0002004E0012002E0012000E0012085F3118870BDF0B585B0FF
:405D8000019240B94FF0200383F31188BFF36F8FBFF34F8FFEE7044619B9036C1BB9012302E0012300E0002343B94FF0200383F31188BFF36F8FBFF34F8FFEE70E4600F05F
:405DC00067FD18B9019B1BB9012302E0012300E0002343B94FF0200383F31188BFF36F8FBFF34F8FFEE7002700F09CFFA56BC5B131462046FFF750FD013DA563236963B101
:405E000004F1100000F0AEFC38B14FF08052304B1A60BFF34F8FBFF36F8F00F0A5FF012053E0019B1BB900F09FFF00204DE01FB902A800F0DBFC012700F096FF00F0F0FA91
:405E400000F070FF94F844305BB2B3F1FF3F02D1002384F8443094F845305BB2B3F1FF3F02D1002384F8453000F07EFF01A902A800F0C6FCF0B92046FFF7D6FCA0B10199E2
:405E800004F1240000F036FC2046FFF717FD00F055FB0028A8D14FF080520D4B1A60BFF34F8FBFF36F8F9FE72046FFF707FD00F045FB99E72046FFF701FD00F03FFB2046B3
:405EC000FFF7B2FC00288FD0002005B0F0BD00BF04ED00E030B585B0019140B94FF0200383F31188BFF36F8FBFF34F8FFEE70446036C43B14FF0200383F31188BFF36F8F5C
:405F0000BFF34F8FFEE700F0C3FC18B9019B1BB9012302E0012300E0002343B94FF0200383F31188BFF36F8FBFF34F8FFEE7002500F0F8FEA36BA3B1013BA363236963B1EE
:405F400004F1100000F00EFC38B14FF08052304B1A60BFF34F8FBFF36F8F00F005FF012053E0019B1BB900F0FFFE00204DE01DB902A800F03BFC012500F0F6FE00F050FA16
:405F800000F0D0FE94F844305BB2B3F1FF3F02D1002384F8443094F845305BB2B3F1FF3F02D1002384F8453000F0DEFE01A902A800F026FCF0B92046FFF736FCA0B1019923
:405FC00004F1240000F096FB2046FFF777FC00F0B5FA0028ACD14FF080520D4B1A60BFF34F8FBFF36F8FA3E72046FFF767FC00F0A5FA9DE72046FFF761FC00F09FFA2046CD
:40600000FFF712FC002893D0002005B030BD00BF04ED00E000230BE0074A52F8332032B9054A42F8331002EBC303586070470133092BF1D9704700BFE436030870B504466E
:406040000D46164600F06EFE94F844305BB2B3F1FF3F02D1002384F8443094F845305BB2B3F1FF3F02D1002384F8453000F07CFEA36B2BB93246294604F1240000F054FBCE
:406080002046FFF71BFC70BD094B9B6A1B680BB9012300E0002323B14FF0FF32044BDA627047034B9A6AD268D2685268DA6270473C6D020810B50446006B00F0A1FF20465D
:4060C00000F09EFF10BD00BF2DE9F0478246894615469846089F099E0A9C9200A521206B01F0DCFC236B05F18042013A03EB820525F00705002308E019F80310E21882F810
:40610000341019F8032012B101330F2BF4D9002384F84330062F00D90627E762201DFFF735FB04F11800FFF731FB2461C7F10703A3616462002306E003F1100204EB82022E
:40614000002151600133042BF6D90023A36584F85C3042465146284600F0BCFD206006B13460BDE8F08700BF70B5002407E004EB8402930010481844FFF7FCFA0134062CCD
:40618000F5D90E4C04F1BC063046FFF7F3FA04F1D0052846FFF7EEFA04F11400FFF7EAFA04F1E400FFF7E6FA2046FFF7E3FAA662C4F8F85070BD00BF6C6D02083C6D020838
:4061C00038B5044600F0AEFD264BD3F8FC200132C3F8FC20D3F800314BB9224BC3F80041D3F8FC30012B10D1FFF7BEFF0DE01D4BD3F804314BB91B4BD3F80031DA6AE36AFF
:406200009A4202D8174BC3F80041164AD2F808310133C2F80831E36AD2F80C21934202D9104AC2F80C310F4D05F1300003EB83039A00211D1044FFF7ADFA00F095FDD5F86D
:4062400004316BB1D5F80031DA6AE36A9A4207D24FF08052044B1A60BFF34F8FBFF36F8F38BD00BF3C6D020804ED00E038B517E000F058FD0D4CD4F8F030DD68281DFFF749
:40628000AFFAD4F8FC30013BC4F8FC30D4F81031013BC4F8103100F067FD2846FFF70AFF024BD3F81031002BE2D138BD3C6D020808B5FFF7DBFF064B1B6B012BF9D94FF092
:4062C0008052044B1A60BFF34F8FBFF36F8FF0E73C6D020804ED00E070B504460E46174BD3F81451D3F800010430FFF779FAB4F1FF3F07D136B11148D0F800110431FFF7AB
:4063000049FA70BD2C440D4BD3F800315C60A54208D90A4BD3F8F800D3F800110431FFF745FA70BD054DA86AD5F800110431FFF73DFAEB6A9C4200D2EC6270BD3C6D020843
:406340002DE9F04385B006460F4615469846900000F026FE60B18146602000F021FE044610B1C0F8309004E0484600F049FE00E000248CB10023039302940D9B01930C9B1B
:40638000009343462A4639463046FFF79DFE2046FFF716FF012001E04FF0FF3005B0BDE8F08300BF00B583B0194B019300230093802218491848FFF7C3FF012801D100F0C2
:4063C000CDFA012814D14FF0200383F31188BFF36F8FBFF34F8F114B4FF0FF32DA620122C3F804210022C3F8142100F03DFD0BE0B0F1FF3F08D14FF0200383F31188BFF30A
:406400006F8FBFF34F8FFEE703B05DF804FB00BF586E020858AE0810B16208103C6D0208034AD2F818310133C2F81831704700BF3C6D0208014BD3F8140170473C6D020801
:406440002DE9F0413C4BD3F81831002B65D13A4BD3F814410134C3F81441CCB99B6A1B6843B14FF0200383F31188BFF36F8FBFF34F8FFEE7304B9A6AD3F8F8109962C3F850
:40648000F820D3F820210132C3F82021FFF7FCFD294BDB6A9C4203D2002645E0012600E00026254B9B6A1B680BB9012300E0002323B14FF0FF32204BDA6235E01E4B9B6A65
:4064C000DB68DD686B689C4202D21B4AD3622BE005F104084046FFF783F9AB6A1BB105F11800FFF77DF9EB6A134AD2F80C21934202D9114AC2F80C310F4F07F1300003EB76
:4065000083039A0041461044FFF744F9EA6AD7F80031DB6A9A42C1D2C3E7074AD2F824310133C2F824310026034BD3F8283103B101263046BDE8F0813C6D0208394BD3F8C7
:40654000183143B94FF0200383F31188BFF36F8FBFF34F8FFEE770B500F0E4FB314BD3F81821013AC3F81821D3F81831002B52D12C4BD3F8FC303BBB00244FE0294D2B6A79
:40658000DC6804F11800FFF72BF9261D3046FFF727F9E36AD5F80C21934201D9C5F80C31204D05F1300003EB83039A0031461044FFF7F0F8E26AD5F80031DB6A9A4204D325
:4065C0000122C5F8282100E00024164B5B69002BD4D10CB1FFF758FD124BD3F8244164B1FFF72EFF18B101220E4BC3F82821013CF6D100220B4BC3F824210A4BD3F828316E
:406600005BB14FF08052084B1A60BFF34F8FBFF36F8F012402E0002400E0002400F0A4FB204670BD3C6D020804ED00E0304BD3F8183123B101222E4BC3F82821704710B5DC
:406640002B4B0022C3F82821D3F800311B6B1A68B2F1A53F0BD15A68B2F1A53F07D19A68B2F1A53F03D1DB68B3F1A53F07D0204BD3F80001D3F800113431FAF755FA1C4BD8
:40668000D3F80C310AE043B94FF0200383F31188BFF36F8FBFF34F8FFEE7013B03EB83018A0013490A44126B002AECD008469900CC18A2000244546B64685463303019445F
:4066C0008A0008320244944206D1606803EB83018A0007490A445063054903EB830082000A44526BD268C1F80021C1F80C3110BD3C6D020840B94FF0200383F31188BFF3DC
:406700006F8FBFF34F8FFEE710B50C46054BD3F800111831FFF74AF801212046FFF7DCFD10BD00BF3C6D020838B540B94FF0200383F31188BFF36F8FBFF34F8FFEE70C46BE
:406740001546074AD2F800111831FFF723F80DB14FF0FF3429462046FFF7BEFD38BD00BF3C6D020838B5C368DC6844B94FF0200383F31188BFF36F8FBFF34F8FFEE704F137
:4067800018052846FFF72CF8154BD3F81831ABB9251D2846FFF724F8E36A114AD2F80C21934202D90E4AC2F80C3103EB83039A0029460C481044FEF7EDFF03E029460A4852
:4067C000FEF7E8FFE26A064BD3F80031DB6A9A4204D90120024BC3F8280138BD002038BD3C6D02086C6D0208506D0208034BD3F820210260D3F81431436070473C6D020894
:40680000F8B540B94FF0200383F31188BFF36F8FBFF34F8FFEE7054641B94FF0200383F31188BFF36F8FBFF34F8FFEE70C4600F079FA124BD3F814016968421A2368B3F1F3
:40684000FF3F14D02F680D4ED6F82061B74201D088420ED29A4206D29B1A23602846FFF7C5FF002406E000232360012402E0002400E0012400F078FA2046F8BD3C6D02081D
:406880000122024BC3F82821704700BF3C6D0208064BD3F804312BB1044BD3F818311BB90220704701207047002070473C6D0208064B1A681368B3FA83F35B09036013B998
:4068C000D368186870470020704700BF686E020808B54160006191420AD8D21A83699A4211D2011D0A4B5868FEF760FF002008BD9A4201D2994208D2011D054B1868FEF7F2
:4069000055FF002008BD012008BD012008BD00BF686E020870B500F005FA0E4B9B68B3B90C4C04F10C063046FEF724FF04F120052846FEF71FFF2660656000220C210A208B
:40694000FFF73EF8A06010B10349FFF763FB00F00BFA70BD686E020860AE081000B583B0FFF7D8FF0D4B9B6853B10D4B019303230093002380220B490B48FFF7E1FC00E08A
:40698000002040B94FF0200383F31188BFF36F8FBFF34F8FFEE703B05DF804FB686E02089C6E020868AE0810416C081040B94FF0200383F31188BFF36F8FBFF34F8FFEE7AB
:4069C00030B585B015460446124A9068F0B11A46019102950394052913DCFFF759FF022807D10023089A01A90A488068FFF72EF80DE000231A4601A906488068FFF726F82D
:406A000005E0002301A9FFF7E9F800E0002005B030BD00BF686E020870B582B029E0DB681E68DC68251D2846FEF7DAFE636A20469847E369012B1CD1A36933449E4207D2EF
:406A4000636024612946104B1868FEF7AFFE10E0002100910B4632462046FFF7A7FF40B94FF0200383F31188BFF36F8FBFF34F8FFEE7054B1B681A68002AD0D1024A5168C1
:406A80001160536002B070BD686E020838B50546FFF7D0FC0446074B9B6B984204D2FFF7BBFF01232B6001E000232B60014B9C63204638BD686E020870B582B005460E463D
:406AC000134B1B68DB68DC68201DFEF789FEE369012B18D1A1692B46324629442046FFF7F7FE80B1002100910B462A462046FFF75DFF40B94FF0200383F31188BFF36F8FED
:406B0000BFF34F8FFEE7636A2046984702B070BD686E020870B582B006460C46FFF780FC01A8FFF7B3FF019B1BBB054644B9B04206D3FFF703FD29463046FFF7BDFF1AE04B
:406B40002CB10E4B5B681C68B4FA84F464092246711B0A4B9868FFF771FAFFF7EFFC50B94FF08052064B1A60BFF34F8FBFF36F8F01E0FFF7E3FC02B070BD00BF686E020821
:406B800004ED00E030B587B04DE0039B002B4ADB059C636913B1201DFEF722FE02A8FFF775FF039B092B3ED8DFE803F00505053D273A05053D270499A5690B4602462944C8
:406BC0002046FFF785FE70B3636A20469847E369012B28D1A269002100910B46049802442046FFF7E3FEF0B94FF0200383F31188BFF36F8FBFF34F8FFEE70499A16141B90B
:406C00004FF0200383F31188BFF36F8FBFF34F8FFEE70346024601442046FFF759FE02E0204600F0EDF9002203A9044B9868FFF7A5F80028A9D107B030BD00BF686E020882
:406C400000B583B001A8FFF733FE0199FFF762FFFFF798FFF6E700BF82B0002301930D4B1B68B3F1FF3F08D04FF0200383F31188BFF36F8FBFF34F8FFEE74FF0200383F356
:406C80001188BFF36F8FBFF34F8F019B002BFCD002B070478043020808480068006880F308884FF0000080F3148862B661B6BFF34F8FBFF36F8F00DF00BF000008ED00E0DF
:406CC000DFF80C00016841F4700101607047000088ED00E04FF0807340F8043C21F0010140F8081C054B40F80C3C40F8202C6FF0020340F8243C4438704700BF596C0810FD
:406D0000074B19680868B0E8F04F80F30988BFF36F8F4FF0000080F311887047AFF300803C6E02084FF0200383F31188BFF36F8FBFF34F8F0A4A136801331360012B0DD17C
:406D4000084B1B6813F0FF0F08D04FF0200383F31188BFF36F8FBFF34F8FFEE7704700BF8043020804ED00E0094B1B6843B94FF0200383F31188BFF36F8FBFF34F8FFEE741
:406D8000013B034A13600BB983F31188704700BF80430208000000000000000000000000EFF30980BFF36F8F154B1A681EF0100F08BF20ED108A20E9F04F10602DE9090052
:406DC0004FF0200080F31188BFF34F8FBFF36F8FFFF72CFC4FF0000080F3118809BC19680868B0E8F04F1EF0100F08BFB0EC108A80F30988BFF36F8F704700BFAFF300807C
:406E00003C6E020808B54FF0200383F31188BFF36F8FBFF34F8FFFF713FB18B14FF08052024B1A60002383F3118808BD04ED00E0084A0023136008490B60084B1B680849F8
:406E4000A1FB03139B09013B06490B6007231360704700BF10E000E018E000E03C430208D34D621014E000E010B582B0314B1A78D2B20192FF221A701B78DBB28DF803307D
:406E80009DF803302C4A03F0200313700723536009E0294A5368013B53609DF803305B00DBB28DF803309DF8033013F0800FF0D1214B5B68C3F10702032A08D04FF0200342
:406EC00083F31188BFF36F8FBFF34F8FFEE7032A08D04FF0200383F31188BFF36F8FBFF34F8FFEE71B0203F4E063134A5360019BDBB2104A1370114B1A6842F47F021A6047
:406F00001A6842F07F421A60FFF792FF00240C4B1C60FFF7D5FE0B4A136843F040431360FFF7BAFEFFF782FBFFF796FE204602B010BD00BF00E400E0A46E020820ED00E006
:406F40008043020834EF00E0EFF305830F2B0FD9104A9B5CDBB2104A1278934208D24FF0200383F31188BFF36F8FBFF34F8FFEE70A4B1B6803F4E063074A5268934208D9DB
:406F80004FF0200383F31188BFF36F8FBFF34F8FFEE77047F0E300E0A46E02080CED00E038B5044610F0070F02D020F007040834FFF736FA104B1B682BB90F4A02F10C0323
:406FC00023F0070313600D4BD3F85C351C444BF6F772944208D8A34208D2074A15681D44064BC3F85C4502E0002500E00025FFF7A5FA284638BD00BFAC6E02085429030883
:4070000040B14FF0200383F31188BFF36F8FBFF34F8FFEE7704700BF08B518B1094AD062002000E0084858B9084B1B782BB90548FDF78AFB0122054B1A7008B9FDF7AEFBFC
:4070400008BD00BF8443020801001600B42E030808B502490248FCF791F808BD343703080000664008B5114B1B785BB9104A11491148FBF75FFE11491148FCF717F9012213
:407080000A4B1A700E4BB3F90030002B08DB590903F01F03012202FA03F30A4A42F82130054A136843F00043136008BDDC2E03083437030898B00810000066405170081061
:4070C00018A8081000E100E008B5084B1B783BB9074A01210748FCF77FFB0122034B1A70044B02229A609A6108BD00BFDD2E0308D8B008100000384008B502490248FBF7D8
:4071000023FD08BD6C3703080000634010B5144B1B788BB9134C144A14492046FBF7C4F8134A14492046FBF7CDF913491348FCF7BDF801220A4B1A70104BB3F90030002B55
:4071400008DB590903F01F03012202FA03F30C4A42F82130034A136843F00043136010BDDE2E0308000063406C3703083CB1081000127A00801A0600F970081020A8081047
:4071800000E100E081F0004102E000BF83F0004330B54FEA41044FEA430594EA050F08BF90EA020F1FBF54EA000C55EA020C7FEA645C7FEA655C00F0E2804FEA5454D4EB83
:4071C0005555B8BF6D420CDD2C4480EA020281EA030382EA000083EA010180EA020281EA0303362D88BF30BD11F0004F4FEA01314FF4801C4CEA113102D0404261EB410142
:4072000013F0004F4FEA03334CEA133302D0524263EB430394EA050F00F0A780A4F10104D5F1200E0DDB02FA0EFC22FA05F2801841F1000103FA0EF2801843FA05F35941B0
